:020000040800F2
:10000000A80F0020650100086D0100086F010008BD
:10001000710100087301000875010008000000006C
:100020000000000000000000000000007701000850
:1000300079010008000000007B010008910600081B
:100040007F0100087F0100087F0100087F01000890
:100050007F0100087F0100087F0100087F01000880
:100060007F0100087F0100087F0100087F01000870
:100070007F010008590700087F010008BD0700083C
:100080007F0100087F010008000000007F010008D8
:100090007F0100087F0100087F0100087F01000840
:1000A0007F0100087F0100087F010008F5080008B3
:1000B000F9080008000000007F01000800000000AF
:1000C0007F010008000000007F0100087F01000898
:1000D0007F01000800000000000000000000000098
:1000E00000000000000000007F0100080000000088
:1000F0000000000000000000000000000000000000
:100100007F01000800000000000000007F010008DF
:1001100000000000000000000000000000000000DF
:1001200000000000000000000000000000000000CF
:1001300000000000000000000000000000000000BF
:100140000000000000000000000000007F01000827
:10015000DFF80CD000F04AF8004800477912000898
:10016000A80F00200648804706480047FEE7FEE744
:10017000FEE7FEE7FEE7FEE7FEE7FEE7FEE7FEE757
:1001800095060008510100082DE9F05F05460020A2
:1001900092469B4688460646814640241BE02846F8
:1001A00041464746224600F042F853465A46C01A96
:1001B000914110D311461846224600F029F82D1A15
:1001C00067EB01084F4622460120002100F020F88D
:1001D00017EB00094E41201EA4F10104DFDC484664
:1001E00031462A464346BDE8F09F0000064C074DC5
:1001F00006E0E06840F0010394E8070098471034F7
:10020000AC42F6D3FFF7A8FF041900082419000830
:10021000202A04DB203A00FA02F1002070479140C6
:10022000C2F1200320FA03F3194390407047202ABB
:1002300004DB203A21FA02F00021704721FA02F390
:10024000D040C2F120029140084319467047000097
:1002500010B500F053FC00F009F900F05BFA00F073
:1002600023FC0CA000F060FC51221A491AA000F0F7
:100270005BFC01231A46002120A000F055FC2DA2B2
:100280002FA132A000F050FCBDE810403BA000F0D0
:100290004BBC00000A0A0A3D3D3D3D3D3D3D3D3D14
:1002A0003D3D3D3D3D3D3D3D3D3D3D3D3D3D3D3D7E
:1002B0003D3D3D3D3D3D3D3D3D3D3D3D3D3D3D3D6E
:1002C0003D3D3D3D3D3D3D3D3D3D3D3D3D3D3D3D5E
:1002D0003D3D0A00E21800085B5538735D20257328
:1002E0003A28256429205538537562C6F4B6AF62A2
:1002F0006F6F744C6F61640A0000000066775F7670
:10030000657273696F6E203D2025642C20737562C1
:1003100056657273696F6E31203D2025642C207301
:10032000756256657273696F6E32203D2025642EAA
:100330000A00000031363A30343A35360000000009
:100340004465632031302032303138000A2055387E
:1003500053756220626F6F746C6F6164B1E0D2EBB1
:10036000CAB1BCE42C20D4C2C8D5C4EA202573206D
:10037000CAB1B7D6C3EB2573200A00000A3D3D3D44
:100380003D3D3D3D3D3D3D3D3D3D3D3D3D3D3D3D9D
:100390003D3D3D3D3D3D3D3D3D3D3D3D3D3D3D3D8D
:1003A0003D3D3D3D3D3D3D3D3D3D3D3D3D3D3D3D7D
:1003B0003D3D3D3D3D3D3D3D0A00000070B50546DB
:1003C00000244FF47A7603E0304600F005F8641C10
:1003D000AC42F9D370BD000070B54FF0E0250021AC
:1003E0006C69094AAB6912785043AA699A42FCD0F9
:1003F00002D2A3EB020302E0A4EB02063344194449
:1004000013468142F1D370BD340000200028FDD096
:100410000021C1800181418108467047002343606B
:1004200083600160828018467047428903899A423E
:10043000428901D283881A440389D21A8388521CC4
:10044000934210D9428903681344521C42811970A7
:10045000C188491CC18081884289914201D800210C
:100460004181002070474FF0FF30704700F06ABEB6
:1004700070B515460E460446FFF7F8FF002303E06B
:1004800014F8010BF0545B1CAB42F9D3002070BD93
:100490002DE9F05F15468846824600F0E3FDAAF19B
:1004A0000060C0F30906870AC6F58064A54200D83B
:1004B0002C46DFF894B0FFF7D9FF4FF0006000EB57
:1004C000872081464FF480621F49FFF7D1FF00204B
:1004D00005E032181BF80210FF2902D1401CA0428F
:1004E000F7D3A04214D2484600F07EFD342000F03D
:1004F0006DFD00205A4604E018F800108319401CD6
:10050000D154A042F8D348464FF480720E4906E019
:10051000A0074FEA940200D0521C4146504600F01A
:1005200015F8A5420BD0281BA044A244002685B292
:100530004FF480647F1CA542BDD82C46BBE700F079
:100540004BFD0020BDE8F09F440000202DE9F0475E
:1005500090468946064600254FF47A7717E0002436
:10056000342000F033FD59F82510304600F08AFDA4
:1005700090B10120FFF722FF2046641CB842F8D951
:1005800033464122054906A000F0CEFA6D1C4545D0
:10059000E5D30020BDE8F087361DF7E7EA1800082C
:1005A0005B5538735D2025733A28256429D0B466DD
:1005B0006C617368B3ACCAB12C205B307825785D70
:1005C0002C20B4EDCEF3212121200A00002909D1ED
:1005D000054A00284FF00201104601D000F0EFBD9F
:1005E00000F0EBBD70470000000400482DE9F04129
:1005F000114D124E0024314655F8240001F049F9FE
:1006000098B10F4904EB440001EB800755F8240032
:1006100001F0FCF8C1B23846FFF707FF55F8240097
:100620003146BDE8F04101F02CB9641CE4B2022C63
:10063000E1D3BDE8F08100000C00002005000507B3
:100640006C06002008B50168064A1140B1F1005F50
:1006500005D141680091006880F30888884701202F
:1006600008BD00000000FE2F58B109280CD00A2850
:100670000DD00123401E834003EA01001146FFF71D
:10068000A5BF11460020FAE711460120F7E77047A1
:10069000704700001A48016841F0010101600168DB
:1006A0008907FCD54168174A114041604168164AE4
:1006B000114041600168154A11400160C16A144A45
:1006C0001140C162016B40F2031291430163016B5F
:1006D00021F480310163016B21F000410163416B22
:1006E00021F001014163D0F8C01021F48031C0F83D
:1006F000C01000218160C0F8CC1000F0F7BF0000EE
:10070000001002400C00FF08FFFFC277FFFFF2FE5F
:10071000F0FFFF3F10B5042001F02CF80B480C4906
:100720000C4B0068B0FBF1F2B0FBF1F14FF47A70C2
:1007300041434FF0E0201A70026942F00202026168
:100740004161016941F00101016110BD3C000020DF
:1007500040420F003400002070B5174D154C0121A8
:10076000284601F01CF800281BD00121284601F082
:1007700012F8617920790022FFF776FF2079401C7A
:10078000207120790B280CD1E08A401C80B2E082D5
:10079000A18A884206D2E18A2069405C607100200B
:1007A000207170BDA52020702846BDE8704000F083
:1007B000EDBF0000900B0020002C014010B501217E
:1007C0008C07204600F0EBFF002807D001212046CF
:1007D00000F0E1FF0248416A491C416210BD00007F
:1007E000440400202DE9F05F894604463E4900EBB1
:1007F000440001EB800A3D48934630F8140000F0B5
:100800004BFF3A48001D30F8140000F045FF374F09
:1008100001212037A7F1100857F8242058F82400A8
:1008200000F0A0FC07F10805A5F1100655F82420FA
:1008300056F82400012100F095FC57F8243058F8B0
:1008400024000122022100F0BCFC57F824004FF6DE
:10085000FF7703463A46002100F0D7FC55F82430D4
:1008600056F824000122022100F0ABFC55F8243098
:1008700056F824003A46002100F0C7FC203D55F808
:10088000240000F0CBFF55F82400594600F092FFF9
:1008900055F82400042101F014F855F8240008212B
:1008A00001F017F8B9F1010F16D155F82400052110
:1008B00000F0DCFFA5F10C000122005D114600F004
:1008C0003DFD0B484FF4807200EB04215046FFF7CA
:1008D000A5FD5046FFF79AFD55F8240000F0B6FF3D
:1008E0000020BDE8F09F00006C06002004000020FE
:1008F0006C040020FFF77ABEFFF778BE2DE9F34FB6
:1009000085B006460024FFF7B1FD012000EB9620DC
:1009100087B200F095F84FF0FF3B18B1584607B08A
:10092000BDE8F08F00F09EFB314D05EB842000F018
:100930005BFB342000F04AFB641C382CF5D300F03C
:100940004BFB0024DFF8ACA04FF48069A84610E010
:10095000FFF78CFD0AEB84204D464A462649FFF7F7
:1009600087FD08EB84202A462349FFF791FD641C8C
:10097000A4B2BC42ECD300252C46474609E0012234
:1009800003A9E019FFF774FD9DF80C00641C2844CE
:1009900085B2B442F3D30698854224D117A000F063
:1009A000C3F80024144F1D4D26460A3F0A2269460B
:1009B00028460096FFF76CFD0F490A220A3928469F
:1009C000FFF756FD1420FFF7F9FC0A226946284676
:1009D000FFF74EFD386808B9009810B1641C082C68
:1009E000E4D300209BE70EA000F09EF896E70000FD
:1009F00000200008000001088E070020636865637E
:100A00006B73756D206F6B2C20757064617465203D
:100A100073756363657373210D0A000000FC0108A0
:100A2000636865636B73756D206661696C2C2075F6
:100A30007064617465206661696C6564210D0A00EB
:100A4000F8B500258DF800502C46FFF70FFD0D4E30
:100A50000D4F09E001226946E019FFF709FD9DF8F5
:100A60000000641C284485B27068A042F2D8328924
:100A7000AA4205D0294605A000F056F80120F8BD8D
:100A80000020F8BD8407002000000108D0A3D1E9B0
:100A9000B3F6B4ED2121215B2523785D2C205B2565
:100AA00023785D0D0A00000001214FF496420020DA
:100AB000FFF798BE2DE9F047174688460546002403
:100AC0000D4E40F207790EE018F8041056F8250094
:100AD00000F0A0FE56F82500494600F0BCFE0028B4
:100AE000F8D0641CA4B2BC42EED31420FFF766FC1D
:100AF0000020BDE8F08700000C00002010B54FF486
:100B00001064204600F04CFD204600F057FD0128FF
:100B1000FAD104214FF47F6000F0ECFA00F012FBF0
:100B2000BDE8104000F016BB0FB4054B10B503A98B
:100B3000044A029800F018F810BC5DF814FB00009D
:100B4000B91000084000002002E008C8121F08C1C8
:100B5000002AFAD170477047002001E001C1121F3E
:100B6000002AFBD1704700002DE9FF4F8DB00F46E2
:100B70000546002606E025280BD0DDE90F12904738
:100B80006D1C761C28780028F5D111B03046BDE8E0
:100B9000F08F0024A246A1460122EC4900E0044364
:100BA00015F8013F203B02FA03F00842F7D12878FC
:100BB0002A2810D06FF02F022878A0F130010929DF
:100BC00014D80AEB8A0102EB410144F0020400EB65
:100BD000010A6D1CF0E701CF5FEA000A03D544F477
:100BE0000054CAF1000A44F002046D1C28782E2833
:100BF00017D115F8010F44F004042A280ED06FF025
:100C00002F022878A0F1300109290AD809EB8901BF
:100C100002EB410100EB01096D1CF2E757F8049B60
:100C20006D1C28786C280FD006DC4C2817D068285B
:100C30000DD06A2814D104E0742810D07A280FD17E
:100C40000DE044F400140AE044F4801401E044F49C
:100C500040146978814202D104F580146D1C6D1C2A
:100C60002A786E2A1FD00CDC632A31D004DC002ADB
:100C70008BD0582A11D1A3E0642A68D0692A0CD1FC
:100C800065E0732A2ED004DC6F2A73D0702A04D159
:100C90009BE0752A6FD0782A6ED01046DDE90F12DE
:100CA0009047761C50E1C4F30250022806D0032876
:100CB00009D0042801CF09D0066045E101CFF11722
:100CC000C0E9006140E101CF06803DE106703BE1F3
:100CD00017F8040B8DF8000000208DF80100EB469A
:100CE000012003E057F804BB4FF0FF3061074FF0DD
:100CF000000102D40DE008F10101884649450FDAF0
:100D00008045F8DB1BF808100029F4D108E008F151
:100D1000010188468142FADB1BF808100029F6D150
:100D2000DDE90F23AAEB08008146214600F036F9E1
:100D3000304400EB080604E0DDE90F121BF8010B5C
:100D40009047B8F10108F7D221464846F7E00A215A
:100D5000C4F302534FF0000B0891022B04D001CFD3
:100D6000C117032B09D00AE0FF1D27F00707F7E89A
:100D7000020108E032E01FE020E000B2C117042BBE
:100D800001D140B2C117031E71F1000307DA4FF021
:100D9000000CD0EB0C006CEB01012D2302E02305CD
:100DA00004D52B238DF82430012303E0E30701D081
:100DB0002023F7E7984658E00A2110E010210EE0C2
:100DC00010204FF0000B08900CE010214FF0000BAA
:100DD00044F004044FF00809089103E008214FF0A3
:100DE000000B0891C4F30253022B04D001CF002161
:100DF000032B06D006E0FF1D27F00707F7E80201E6
:100E000003E080B2042B00D1C0B24FF000082307EA
:100E10002BD5702A07D0DDF820C08CF0100C5CEACE
:100E20000B0C05D00EE040238DF82430012308E0A0
:100E300050EA010306D030238DF824308DF82520A8
:100E400002239846DDF820C08CF0080C5CEA0B0CFD
:100E50000BD150EA010301D1630706D530238DF889
:100E600024304FF00108A9F10109582A04D038A212
:100E70000B9208AA0A920BE03AA2F9E75B46089A9D
:100E8000FFF782F90B9B9B5C0A9A521E0A92137021
:100E900050EA0102F2D10A98ADEB000000F1200BFC
:100EA000600702D524F4803401E04FF00109D945F0
:100EB00002DDA9EB0B0000E0002000EB0B01414438
:100EC0000890AAEB010AE00306D4DDE90F232146CE
:100ED000504600F063F806444FF0000908E009A905
:100EE00011F80900DDE90F12904709F10109761C9C
:100EF000C145F4DBE0030CD5DDE90F232146504664
:100F000000F04CF8064404E0DDE90F123020904771
:100F1000761C0899481E08900029F5DC08E00A981C
:100F20000A990078491C0A91DDE90F129047761C56
:100F3000BBF10001ABF1010BF1DC21465046DDE9CC
:100F40000F2300F019F806446D1C1BE60928010068
:100F5000303132333435363738396162636465662F
:100F600000000000303132333435363738394142F1
:100F700043444546000000002DE9F04104460025A9
:100F80001E461746880404D405E039462020B047A1
:100F90006D1C641EF9D52846BDE8F0812DE9F041AD
:100FA000044600251E469046C80301D5302700E0C0
:100FB0002027880404D505E041463846B0476D1C1B
:100FC000641EF9D52846BDE8F08100000149C860DB
:100FD00070470000002002400248016941F0800192
:100FE000016170470020024070B505464FF470263D
:100FF000304600F017F8002810D1094C206940F065
:10100000020020616561206940F0400020613046A7
:1010100000F008F8216921F00201216170BD000093
:101020000020024000B5034600F008F85B1E0128CE
:1010300002D1002BF8D1042000BD00000849002097
:10104000CA68D20701D001207047CA68D20601D50C
:1010500003207047C9684907FBD50220704700008C
:101060000020024004480169090603D50349416094
:10107000034941607047000000200240230167459A
:10108000AB89EFCDF0B506464FF470270D463846D4
:10109000FFF7C8FF00280CD1064C206940F0010082
:1010A000206135603846FFF7BDFF216921F001015D
:1010B0002161F0BD0020024070B50C4C05466088EF
:1010C0000026FF280FD8618809480844491C618020
:1010D00005700A2D05D1628805490020FFF7EAFC5A
:1010E0006680284670BD4FF48072F5E7000000204E
:1010F0008406002030B5124D104B45F255541A4667
:101100002C60EC68521E04F0010402D0002CF8D1CF
:1011100000E04CB96960E9685B1E01F0020102D091
:101120000029F8D102E009B1002030BDC0F30B0066
:10113000A8604AF6AA202860012030BDFFFF0F00FA
:101140000030004002494AF6AA20086070470000BB
:101150000030004002494CF6CC4008607047000067
:1011600000300040F0B5046A456A00234FF0010CDE
:101170004FF00F0E0CFA03F6164206D09E000EFA40
:1011800006F7BC4301FA06F73C435B1C9BB2082BF5
:10119000F0D308230CFA03F6164207D09E00203E37
:1011A0000EFA06F7BD4301FA06F73D435B1C9BB2FE
:1011B000102BEFD304624562F0BD816270478161FC
:1011C00070472DE9F0470568C66800244FF0010A12
:1011D0004FF003090AFA04F71F420ED0670009FA1C
:1011E00007FC25EA0C0526EA0C0601FA07F802FAC4
:1011F00007FC48EA05054CEA0606641CA4B2102C5C
:10120000E8D30560C660BDE8F087F0B50129416804
:1012100030D099434160846801260327A2F57F41BD
:10122000FF3913D0002106FA01F51D4208D04D0008
:1012300007FA05FC24EA0C0402FA05FC4CEA040453
:10124000491C89B21029EED38460F0BDC26B002125
:1012500006FA01F51D4206D04FEA410C07FA0CFCD4
:101260004CEA04042A43491C89B21029F0D3846053
:10127000C263F0BD1943CDE74FF4407000F09EF813
:10128000FEF7E6FF0A2212491248FFF7F1F8104C68
:1012900011492068884208D1228961680FA0FFF7B0
:1012A00043FC21896068FFF729FB134C6168082221
:1012B000B2EB116F06D111A0FFF736FC2046FFF705
:1012C000C1F901E012A000E018A0FFF72DFCFBE738
:1012D0008407002000FC0108DEBC55AABCECB2E289
:1012E000B5BDC9FDBCB6B1EAD6BE215B25645D2C97
:1012F000205B2523785D0A0000200008CCF8D7AADF
:10130000B5BD415050D3A6D3C3B3CCD0F2210A000F
:10131000B7C7415050D3A6D3C3B3CCD0F22CCEDE46
:10132000B7A8D6B4D0D0210A00000000C3BBD3D0E8
:10133000617070B3CCD0F2210A00000030B51E4DB0
:10134000002423462D6805F4E065B5F5A06F12D0A2
:1013500006DCB5F5407F14D0B5F5806F12D10DE0F5
:10136000B5F5C06F04D0B5F5E06F0BD1042309E0EB
:101370000124032306E00224234603E0032401237F
:1013800000E00424C4F10404A140C3F104040F23C9
:10139000E34013400B4300F1E022190182F80014EE
:1013A00000F01F02012191404009800000F1E0207F
:1013B000C0F8001130BD00000CED00E00249084308
:1013C00002490860704700000000FA050CED00E0DB
:1013D0002DE9F04760A288B074CA8DE874005FA25E
:1013E000614ED2E90042CDE904425CA28046D2E9D6
:1013F0000042CDE9064200207268014603465B4D7B
:10140000C2F381021AB1012A01D0022A01D02A4670
:1014100023E072687468C2F38342C4F3C067F46A5D
:10142000E40F0FB1113200E0921C04B11F32746856
:10143000F76AC4F30044C7F3807764B1F46A04F038
:101440000F04641C27B14A4FB7FBF4F4624304E075
:10145000B5FBF4F4FAE7474C62437468C4F3031431
:101460001DF8047022FA07F477680DF1100CC7F329
:1014700002271CF8077024FA07F977680DF1180C99
:10148000C7F3C2274FF4004A1CF8077024FA07F785
:10149000B8F1070F06D2DFE808F004080A0C0E3C8A
:1014A0004400104608B0BDE8F0872046FAE74846F9
:1014B000F8E73846F6E7306BC00506D4306BC0035A
:1014C00001D42D4923E02D4921E07068C0F3813219
:1014D000306BC00F32B1012A09D0022A0ED0032A84
:1014E00015D110E008B1032003E079080FE018B12E
:1014F0000520B7FBF0F10AE0B90808E008B10720C1
:10150000F7E70620F5E708B10920F2E7F9080846F1
:10151000C8E7306B400602D448F21200C2E75046DA
:10152000C0E7306B80070ED0306B00F0030001285D
:101530000BD0306B00F00300022808D0306BC043A2
:10154000800706D006E03B4604E0134602E053461F
:1015500000E02B461846A5E7000000000000000050
:1015600001020304060708090010024000127A0075
:10157000006CDC0200093D00809FD500003FAB01FC
:10158000064A02EB9011096800F01F02012090400A
:10159000014201D001207047002070470010024036
:1015A000054901EB90110A6800F01F0301209840E3
:1015B00002430A60704700000010024070B500232B
:1015C0004FF40066334D1C46B0421BD005DC30B3EF
:1015D00010280ED018285AD14DE0B0F5106F3FD02A
:1015E000B0F5506F26D000F57F60B0F5804F4ED13A
:1015F0002BE01120FFF7C4FF5B1C08B9B342F8D100
:10160000112040E040F601066FF07C453046FFF7C0
:10161000B7FF5B1C08B9AB42F8D1304633E04FF45A
:10162000A0650120FFF7ACFF5B1C08B9AB42F8D105
:10163000012028E040F601563046FFF7A1FF5B1C71
:101640000028EAD1AB42F7D1E7E743F21106304672
:10165000FFF796FF5B1C0028DFD1AB42F7D1DCE738
:1016600040F601163046FFF78BFF5B1C0028D4D1F3
:10167000AB42F7D1D1E71920FFF782FF5B1C08B915
:10168000AB42F8D11920FFF77BFF00B101242046BF
:1016900070BD0000FFFF0F00054901EB90110A68C3
:1016A00000F01F030120984002430A6070470000C9
:1016B00000100240054901EB90110A6800F01F0379
:1016C0000120984082430A607047000000100240E9
:1016D000054901EB90110A6800F01F0301209840B2
:1016E00002430A6070470000001002401E480021BB
:1016F000026842F480320260C3140268491C12F48A
:10170000003F01D19942F8D1016889032BD5416886
:101710004160416841F400514160416841F4806199
:1017200041604168114A11404160C16A21F0404165
:10173000C162C16A41F00101C16241680C4A1143B2
:101740004160016841F08071016001688901FCD548
:10175000416821F003014160416841F002014160AC
:1017600041680907FCD5704700100240FFFFC277AF
:10177000000011084FF0E0210428086903D020F090
:1017800004000861704740F00400FAE7016821F0A6
:1017900001010160704702698A4302617047C268B3
:1017A00000690A40084202D00AB1012070470020B7
:1017B0007047000070B50D460446134900206118BB
:1017C00004D0B1F5744F04D1062000E00220FFF7E9
:1017D000FFFD21680A044FF6F07108D5400000EBC8
:1017E0005500B0FBF5F0014000F0070206E000EB09
:1017F0005500B0FBF5F0014000F00F02E068114326
:101800000843E06070BD000000BCFFBF406AC0F349
:1018100008007047C1F30801816270470A4910B59A
:10182000401805D0B0F5744F0CD140F20E3401E0F1
:1018300040F211442046FFF74BFF2046BDE8104020
:10184000FFF738BF10BD000000BCFFBF016841F0CA
:1018500001010160704700EB9110006801F01F0268
:1018600001219140084000D00120704710B5C1F31C
:101870008912835801F01F040121A1400B438350BA
:1018800010BD026AC1F30443012199400A43026278
:10189000704730B5C1F38912825800EB915001F0C6
:1018A0001F05012404FA05F300681A40C1F304413E
:1018B00004FA01F3184202D00AB1012030BD002021
:1018C00030BD026822F00402026002680A4302602E
:1018D0007047026822F00802026002680A43026050
:1018E0007047427370496E697400466C6173685743
:1018F00072697465576F726400466C6173685772E1
:1019000069746500241900080000002044000000EC
:10191000480B00086819000844000020640F00000C
:10192000580B00081B1C0000110511050E061107BD
:10193000003801400044004000000048000000481A
:101940000000004800000048000200000400000001
:10195000000400000800000000000000000000007B
:0819600000BD010500000000BC
:04000005080001519D
:00000001FF
