:020000040800F2
:10200000800E0020652100086D2100086F21000866
:1020100071210008732100087521000800000000EC
:102020000000000000000000000000007721000810
:1020300079210008000000007B210008CD4C000839
:102040007F2100087F2100087F2100087F210008F0
:102050007F2100087F2100087F2100087F210008E0
:102060007F2100087F2100087F2100087F210008D0
:102070007F210008154F00087F210008794F0008D4
:102080007F2100087F210008000000007F21000858
:102090007F2100087F2100087F2100087F210008A0
:1020A0007F2100087F2100087F210008A954000833
:1020B000AD540008000000007F210008000000006F
:1020C0007F210008000000007F2100087F21000818
:1020D0007F21000800000000000000000000000058
:1020E00000000000000000007F2100080000000048
:1020F00000000000000000000000000000000000E0
:102100007F21000800000000000000007F2100087F
:1021100000000000000000000000000000000000BF
:1021200000000000000000000000000000000000AF
:10213000000000000000000000000000000000009F
:102140000000000000000000000000007F210008E7
:10215000DFF80CD000F0CCF80048004741620008DE
:10216000800E00200648804706480047FEE7FEE74D
:10217000FEE7FEE7FEE7FEE7FEE7FEE7FEE7FEE737
:10218000D14C000851210008014610B509683C22D5
:10219000B1FBF2F302FB1313B1FBF2F11D48036034
:1021A000B1FBF2F302FB1313B1FBF2F1182243600F
:1021B000B1FBF2F302FB1313B1FBF2F183600A1DD2
:1021C0000723B2FBF3F403FB142282618A0040F27E
:1021D000B55102F66C32B2FBF1F344334361B2FB0A
:1021E000F1F301FB13218908C1613B2903D3027D6F
:1021F000920700D0491C0022074C13460261E25CA2
:102200008A4203D8891A5B1C0361F8E7491CC16044
:1022100010BD0000500A0020D98E000840EA0103DA
:102220009B0703D009E008C9121F08C0042AFAD28C
:1022300003E011F8013B00F8013B521EF9D2704750
:10224000D2B201E000F8012B491EFBD270470022F8
:10225000F6E710B513460A4604461946FFF7F0FFA5
:10226000204610BD421C10F8011B0029FBD1801A2A
:10227000704730B504460020034600E05B1C9342E3
:1022800003D2E05CCD5C401BF8D030BD2DE9F05F9F
:102290000546002092469B468846064681464024D5
:1022A0001BE0284641464746224600F042F8534686
:1022B0005A46C01A914110D311461846224600F0E2
:1022C00029F82D1A67EB01084F462246012000210C
:1022D00000F020F817EB00094E41201EA4F1010484
:1022E000DFDC484631462A464346BDE8F09F000001
:1022F000064C074D06E0E06840F0010394E8070053
:1023000098471034AC42F6D3FFF726FF9C900008A4
:10231000BC900008202A04DB203A00FA02F10020D9
:1023200070479140C2F1200320FA03F31943904013
:102330007047202A04DB203A21FA02F0002170477E
:1023400021FA02F3D040C2F120029140084319461D
:10235000704700002DE9F84FC3780478857883EA48
:1023600004634478E24E240484EA0524634014683C
:10237000857983EA0409C379047983EA046344799B
:10238000240484EA052463405468857A83EA040AB5
:10239000C37A047A83EA0464437A1B0483EA05233C
:1023A0005C409368057B5C40C37B83EA0565437BA7
:1023B000807B1B0483EA00204540D0684540D2F86A
:1023C000F00040100090DFF82CB34FEA1963CAF315
:1023D00007400BF5806E5BF823305EF82000434029
:1023E000C4F3072087000BF50060C059EFB256F820
:1023F00027707840434010694FEA1A6743405BF802
:102400002700C4F307475EF827707840C5F3072715
:102410004FEA870C0BF5006757F80C7009F0FF0CBA
:1024200056F82CC087EA0C07784057694FEA146CBD
:1024300078405BF82C70C5F3074CE4B25EF82CC012
:1024400056F8244087EA0C07C9F3072C4FEA8C089A
:102450000BF5006C5CF808C00AF0FF0856F82880FD
:102460008CEA080C87EA0C07D2F818C087EA0C0738
:102470004FEA156C5BF82C50C9F3074C5EF82CC082
:1024800085EA0C05CAF3072C4FEA8C080BF5006CA3
:102490005CF808C08CEA040CD46985EA0C05654038
:1024A000009C02F12002641E4FEA136C009472D06B
:1024B0005BF82C40C0F3074C4FEA8C08F4460BF550
:1024C000006E5CF808C005F0FF0884EA0C04C7F34E
:1024D000072C56F828805EF82CC08CEA080C84EA99
:1024E0000C04D2F800C084EA0C094FEA106C5BF8C7
:1024F0002C40C7F3074C4FEA8C080BF5806C5CF856
:1025000008C003F0FF0884EA0C04C5F3072C56F852
:1025100028805EF82CC08CEA080C84EA0C04D2F8FF
:1025200004C084EA0C0A4FEA176C5BF82C40C5F330
:10253000074C4FEA8C080BF5806C5CF808C000F083
:10254000FF0884EA0C04C3F3072C56F828805EF8D1
:102550002CC0C3F307438CEA080C84EA0C04D2F8BD
:1025600008C0C0F3072084EA0C044FEA156C5EF83B
:1025700020005BF82C504FEA830C0BF5806353F876
:102580000C305D40FBB256F8233058404540D068CF
:10259000454018E7FFE7DFF860B1B246DFF8549135
:1025A0005BF82C40C0F3074C04F07F4456F82C60D5
:1025B00005F0FF0C06F47F067440C7F3072639F8D0
:1025C000266006F47F46744009F5806616F82CC034
:1025D00084EA0C04D2F800C084EA0C044FEA146CBC
:1025E00081F800C04FEA144C81F801C04FEA142C66
:1025F00081F802C04FEA106CCC705BF82C40C7F336
:10260000074C04F07F445AF82CC00CF47F0C84EA89
:102610000C04C5F3072C39F82CC00CF47F4C84EA69
:102620000C0403F0FF0C16F82CC084EA0C04D2F85A
:1026300004C084EA0C044FEA146C81F804C04FEA29
:10264000144C81F805C04FEA142C81F806C04FEAFB
:10265000176CCC715BF82C40C5F3074C04F07F4439
:102660005AF82CC02D0E0CF47F0C84EA0C04C3F332
:10267000072C39F82CC00CF47F4C84EA0C0400F0D1
:10268000FF0C16F82CC084EA0C04D2F808C084EAC7
:102690000C044FEA146C81F808C04FEA144C81F81E
:1026A00009C04FEA142C81F80AC0CC725BF82540AF
:1026B00004F07F44C3F30743C0F307205AF82330E4
:1026C00039F8200003F47F035C4000F47F4044406D
:1026D000F8B216F820004440D0684440200E087339
:1026E000200C4873200A8873CC73BDE8F88F000073
:1026F000A0790008A06D0008A07500082DE9F04F32
:10270000002358B152B14FF4807B802909D0C029F1
:1027100007D0594505D0981EBDE8F08F4FF0FF3027
:10272000FAE780297ED0C0297DD00E25C2F8F0506E
:10273000C4780578867884EA05644578DFF878A25D
:102740002D0485EA06256C401460C47905798679E4
:1027500084EA056445792D0485EA06256C405460B9
:10276000C47A057A867A84EA0564457A2D0485EA76
:1027700006256C409460C47B057B867B84EA0564F7
:10278000457B2D0485EA06256C40AAF5C856D46021
:1027900006F58064A4F54065A4F5006980297CD025
:1027A000C77C90F810C090F8128087EA0C6790F808
:1027B00011C0C0294FEA0C4C8CEA082C87EA0C07A0
:1027C0001761C77D90F814C090F8168087EA0C67EF
:1027D00090F815C04FEA0C4C8CEA082C87EA0C07DD
:1027E00057617DD0C77E90F818C090F81A8087EAAC
:1027F0000C6790F819C04FEA0C4C8CEA082C87EA59
:102800000C079761C77F90F81CC087EA0C6790F8A7
:102810001DC0807F4FEA0C4C8CEA00204740D761F6
:10282000594501E05DE05EE07DD1D346B246C84641
:10283000D1691068C1F3074601F0FF0C5AF8266011
:1028400035F82CC006F07F467040C1F307260CF423
:102850007F4C54F8266006F47F0686EA0C0670402A
:102860000E0E18F8266070405BF823605B1C704009
:102870001062566846405662D2F808C0072B8CEAB0
:10288000060CC2F828C0D06880EA0C00D0624AD09A
:102890004FEA106C5AF82C7000E026E0166907F039
:1028A0007F477E40C0F30747C0F3072C54F82770DA
:1028B00035F82CC0C0B207F47F070CF47F4C87EAD0
:1028C0000C0718F820007E4046401663506970409F
:1028D0005063966946407140C2E90E612032A7E715
:1028E00033E00A2522E70C2520E7C846D0681168A6
:1028F000C0F3074700F0FF0C56F8277035F82CC0DE
:1029000007F07F477940C0F307270CF47F4C54F859
:10291000277007F47F0787EA0C077940070E18F83D
:102920002770794000E044E05AF823705B1C79403E
:10293000116157684F405761916879404840C2E93A
:1029400006100A2B35D01032D0E7C84650691168FE
:10295000C0F3074700F0FF0C56F8277035F82CC07D
:1029600007F07F477940C0F307270CF47F4C54F8F9
:10297000277007F47F0787EA0C077940070E18F8DD
:10298000277079405AF823705B1C79409161576831
:102990004F40D761916879401162D7684F405762C4
:1029A000082B06D0116979404840C2E90A10183254
:1029B000CCE70020B0E60000A08E000870B5044609
:1029C000AA202070552060700E480D4610F8221F76
:1029D00061710178491C0170681D608001202071BF
:1029E000281DA27181B2E371201D01F08BF96119DC
:1029F00009350872AAB22146BDE87040012002F0F4
:102A0000D1BF00009C0600200021A0F13002092A5D
:102A100001D8D1B20BE0A0F14102052A01D8373824
:102A200004E0A0F16102052A01D85738C1B2084676
:102A3000704700002DE9FC4700270546914688466F
:102A40003C46AA46960801972CE05FEA897020D0A0
:102A5000721C4146504601F0DDF8042201A950469F
:102A600000F0ABFFD8F800000199884216D020464C
:102A7000641CE4B232280ED901F016F9014639235C
:102A80000A4A0BA0009503F003F84FF0FF30BDE8B1
:102A9000FC873246DDE700F08EFFD6E72D1D08F1FA
:102AA00004083F1D4F45D0D30020F0E7766D0008A5
:102AB0005B55382025735D2025733A28256429202D
:102AC000666C617368D0B4CAFDBEDDB3F6B4ED5B6D
:102AD0002523785D21200A0000B5A1B08021684639
:102AE000FFF7B5FB0A4968464A7D0021A52A0BD0AD
:102AF0008DF80810CDF80910022301220521FFF7F7
:102B00005DFF21B0002000BD01228DF80820F1E713
:102B10009C06002010B5007A20B103A002F0B8FF97
:102B2000002010BD06A0F9E7D6F7B0E5D0C4CCF878
:102B3000D3A6B4F02C20B4EDCEF3210D0A00000092
:102B4000CAD5B5BDD6F7B0E5D0C4CCF8D3A6B4F09D
:102B5000210D0A0010B5A0B080216846FFF777FB71
:102B60000E4800228DF80820407D6C46A52811D023
:102B70008DF80920CDF80A2001231A4606212046A7
:102B8000FFF71CFF1022214605A001F001FD20B037
:102B9000002010BD01208DF80900EBE79C06002005
:102BA0004261736963496E666F5368616B65486122
:102BB0006E64000010B5007A20B105A002F068FF35
:102BC000002010BD0849A52081F8230007A0F5E7E3
:102BD000D6F7B0E5CED5CAD6D3A6B4F02C20B4ED46
:102BE000CEF3210D0A0000009C060020CAD5B5BD19
:102BF000D6F7B0E5CED5CAD6D3A6B4F0210D0A00DB
:102C000010B501F0EBF802F01BFF00F0D4FE02F06B
:102C10005FF901F03BFF01F03FFD4FF4FA6000F077
:102C2000CDFD02F0AFFE4FF47A71012002F0B8F949
:102C300001F00EF902F08CF80AA002F029FF01F071
:102C40002DFD00F02FFE022001F064FC4FF46170B6
:102C500000F0B4FD07A002F01BFFBDE8104009A082
:102C600002F016BF5573617274496E6974204F4B40
:102C7000210D0A000D0A20427370496E6974206F9D
:102C80006B0A00000A3D3D3D3D3D3D3D3D3D3D3D26
:102C90003D3D3D3D3D3D3D3D3D3D3D3D3D3D3D3D64
:102CA0003D3D3D3D3D3D3D3D3D3D3D3D3D3D3D3D54
:102CB0003D3D3D3D3D3D3D3D3D3D3D3D3D3D3D3D44
:102CC0000A0A0A0070B505460024012001F0DCFC68
:102CD00000F01000A84223D015B1012D1CD01FE038
:102CE0001021012000F0B4F90A2000F067FD012056
:102CF00001F0CAFCC00613D52046641CE4B250287B
:102D0000F2D300F0D1FF01463223064A06A002F0BA
:102D1000BFFE4FF0FF3070BD1021012001F06CFEAE
:102D2000002070BD6F6C00085B55382025735D2056
:102D300025733A2825642920536574506F7765728E
:102D4000446F776E206572726F722E0D0A0000005C
:102D50007CB50A390478421C8DB2402D0BD900F0A5
:102D6000A3FFCDE9005401469123104A10A002F0C0
:102D70008FFE01207CBD1848816A01290ED0C16AEE
:102D8000A1420BD100F090FFCDE9005401469823F9
:102D9000064A124802F07CFE00207CBDC46229462F
:102DA0001046BDE87C4002F043BC0000CF6C000838
:102DB0005B55382025735D2025733A28256429202A
:102DC0006C656E205B25645D2C205B25645D2C6545
:102DD00072726F72210A00009C060020688F000842
:102DE00010B5D4B052AA4CA951A802F0D3F90028CA
:102DF0007ED14CAB604A022101F08EF9F8B100247B
:102E0000489449944A94F42105A84B94FFF71FFA7B
:102E1000594805AA8021801DFFF770FC4C984D9001
:102E20004E944F94509405AA48A94DA8FFF792FAE2
:102E300052AA4CA951A802F0ADF948B181E000F0C6
:102E400033FF01464D234D4A4DA002F021FE78E0AC
:102E50004294439444944CAB48AA0C2100204594DE
:102E600001F05AF930B152AA4CA951A802F092F9D6
:102E700018B166E042A9312014E04CAB48AA022107
:102E8000002001F049F958B100F00EFF0146792306
:102E90003A4A45A002F0FCFD0A2001F03BFB50E05D
:102EA00042A9092001F07CF900284AD19DF80E01C1
:102EB0009DF810219DF80F118DE807009DF80D3148
:102EC0009DF80C2142A1484802F0F2FD00F0ECFE12
:102ED00001469DF80D010DF1040C9DF810419DF87F
:102EE0000F319DF80E218CE81D009DF80C0100E0CB
:102EF00029E000908D23214A3C4802F0C9FD3A495F
:102F000046A801F07AFE9DF81C0100071DD000F0D4
:102F1000CBFE01469DF819010DF1040C9DF81C41F2
:102F20009DF81B319DF81A218CE81D009DF81801B1
:102F300000909823114A2EA002F0AAFD2A49A5204C
:102F4000887502F041F954B010BD00F0ADFE0146A5
:102F50009DF81C019DF81B2100099DF81A419DF860
:102F60001931CDE90320CDE901349DF81801009015
:102F70009423024A2AA0DFE7000000208B6C00089F
:102F80005B55382025735D2025733A282564292058
:102F90007468697320697320536563726574436153
:102FA00072642E0A000000005B55382025735D20F6
:102FB00025733A2825642920BFA8C6ACC3DCC2EB20
:102FC000C8CFD6A4CAA7B0DC2E2E2E0D0A00000052
:102FD00025303278253032782530327825303278F5
:102FE00025303278000000009C060020E88E0008A2
:102FF0005B55382025735D2025733A2825642920E8
:103000005BBFA8BAC53A2025303278253032782502
:103010003032782530327825303278205D0A000051
:103020005B55382025735D2025733A2825642920B7
:103030005BBFA8BAC53A20253032782530327825D2
:103040003032782530327825303178205D0A000022
:1030500070B50D46044601F017FB20EA0501204635
:10306000BDE8704002F00FBD10B580210A2001F0CC
:10307000C3FC0A2001F008FB002800D0012010BD8D
:103080002DE9FC476B4C00F049FE07464FF008085D
:103090000025694EC0E000F08EFCDFF8A091B4E09E
:1030A00000F089FC00F03AFE07463078092837D254
:1030B000DFE800F0050D183D4D5B6A7F91009DF83B
:1030C0000400AA28EBD12070012070805AE09DF8FE
:1030D0000400552824D1708855212154401C70804B
:1030E00002204FE07088022802D0032804D01AE0A2
:1030F0009DF80410B18016E0B1889DF8042041EAE3
:103100000221B180757005290BD200F0CDFD01467A
:10311000B08800904FF41E73494A4AA002F0B8FCF0
:1031200072E0032131709DF8041021543EE09DF8B7
:103130000410012968D17078401C70707088215487
:10314000B188491EB180401C708004201AE070785C
:103150009DF804100844707070882154B188491E8D
:10316000B180401C708005200CE070789DF8041040
:103170000844707070882154B188491EB180401C89
:1031800070800620307040E070789DF8041008448C
:10319000707070882154B188491E0904090CB180EF
:1031A00002D00721317001E086F80080401C708059
:1031B0002BE070789DF804100844707070882154DA
:1031C000401C7080B088401E80B2B08001281CD1A5
:1031D00086F8008019E070889DF804102154401C86
:1031E00081B271809DF804007278904203D120462C
:1031F00000F014FF08E000F057FD014640F2CD2337
:103200000F4A19A002F044FC357001A9484600F0AD
:1032100005FB00283FF444AF00F080FD07F10A01F0
:10322000884204D800F07AFDB842BFF434AFBDE85C
:10323000FC8700009B0100201C0000200C090020DE
:103240001B6D00085B55382025735D2025733A28D7
:10325000256429206C656E6774683D25642C657251
:10326000726F722E0A0000005B55382025735D20B6
:1032700025733A2825642920434220636865636BDF
:1032800073756D206572722E0A0000002DE9FE43F1
:103290000D460446012600F007FD0146207CA37C74
:1032A000627C8DE80D002523574A58A002F0F0FB00
:1032B0006A1C214661A001F06BF9207C00254FF0CB
:1032C0000108172876D006DC052837D00A2845D013
:1032D000132809D162E05D4F28286CD04FF0A50972
:1032E0002B2837D099280AD000F0DEFC0146207C3C
:1032F00000907223444A56A002F0CAFB77E0607C3B
:1033000068B100F0D1FC014634233F4A5CA002F0D2
:10331000BFFB84F8128087F8355002266BE000F07E
:10332000C3FC01462D23384A5EA002F0B1FBA57410
:1033300087F8359000F0F2FCB863EEE700F0B4FCDB
:1033400001463D23304A60A002F0A2FB022001F0BA
:10335000E1F84FE087F83490BDE8FE8300F0A4FC6C
:103360000146607C00904823274A60A002F090FB51
:10337000607C88B1A5740420E0740320207500F0FF
:1033800093FC0146A07C237DE27C8DE80D00532355
:103390001D4A62A002F07CFB04262CE06574012229
:1033A0002146002001F0EEF900F07EFC01465B238F
:1033B000154A01E013E016E061A002F069FB4FF44A
:1033C0007A7000F0FBF9BFF34F8F68490868684ACC
:1033D00000F4E06010430860BFF34F8FFEE700F099
:1033E000FFFA607407E097F82300A52802D084F85C
:1033F000118000E0657403B032462146BDE8F04319
:10340000002001F0BFB90000A66C00085B55382011
:1034100025735D2025733A2825642920636F6D6329
:103420006F6D20636D64203D205B2523785D2C202B
:103430005B25645D2C205B25645D0A004465627534
:1034400067BDD3CAD5CAFDBEDD0000009C060020C2
:103450005B55382025735D2025733A282564292083
:10346000B4EDCEF3636F6D636F6D20636D64203DCB
:10347000205B2523785D2C206572726F720A000034
:103480005B55382025735D2025733A282564292053
:10349000B9D8B1D5C9CFCEBBBBFABCECB2E2210AD8
:1034A000000000005B55382025735D2025733A2805
:1034B00025642920B4F2BFAAC9CFCEBBBBFABCECAD
:1034C000B2E2210A000000005B55382025735D2020
:1034D00025733A282564292044454255475F434DCA
:1034E000445F5452554D505445200A005B553820D6
:1034F00025735D2025733A282564292044454255CB
:10350000475F434D445F47455453564552206461DD
:1035100074615B305D3D2564200A00005B553820F6
:1035200025735D2025733A2825642920B0E6B1BEB5
:10353000BAC55B25642E25642C25645D0A00000055
:103540005B55382025735D2025733A282564292092
:1035500044454255475F434D445F5245424F4F54A7
:10356000D6D8C6F4CFB5CDB3A3A10A000CED00E0C8
:103570000400FA052DE9FE43714C00F0CFFB07462D
:103580004FF0010800266F4DCDE000F0C7FB074665
:1035900028780C282AD2DFE800F0060FBFBF1A2ACD
:1035A000395B68758DA09DF80800AA281ED120708F
:1035B0004046A5F802807BE09DF808105529F5D11A
:1035C0000420287068882154401C68800DE06888B9
:1035D0009DF808102154401C6880A888401C80B2C7
:1035E000A880052802D305200EE0AE8094E068880C
:1035F0009DF808102154401C6880A888401C80B2A7
:10360000A8800528F2D306202870EEE768889DF888
:1036100008102154401C80B26880A988491C89B2D6
:10362000A980022978D3204430F8020CA880FF2812
:103630000AD900F039FB0146A8880090C223424A0B
:1036400042A002F025FA66E0072028706E7063E061
:1036500068889DF808102154401C688068789DF89F
:10366000081008446870082022E068889DF8081057
:103670002154401C688068789DF8081008446870E0
:10368000092015E068889DF808102154401C6880C6
:1036900068789DF8081008446870A888042801D349
:1036A000001F00E000200004000CA88013D00A20B6
:1036B000287031E068889DF808102154401C68800B
:1036C00068789DF8081008446870A888401E0004B7
:1036D000000CA88020D10B20EAE768789DF808103C
:1036E00088420BD16A88214620A000F051FF234870
:1036F000067169882046FFF7C9FD0CE000F0D4FA96
:1037000001469DF808206878CDE90002F2230E4AB0
:103710001BA002F0BDF92E7002A9274800F07EF828
:1037200000283FF432AF00F0F9FA07F10A018842AD
:1037300003D800F0F3FAB842EED2BDE8FE830000F1
:103740009000002016000020B36C00085B55382064
:1037500025735D2025733A28256429206C656E3D0C
:1037600025642C6572726F722E0A000044656275C2
:10377000675265637650726F63000000300000206E
:103780005B55382025735D2025733A282564292050
:1037900073756D3D253032782C706B742073756DA8
:1037A0003D253032782C6572726F722C64726F70A6
:1037B00020706B742E0A00000009002070B50546C9
:1037C00000244FF47A7603E0304600F005F8641CDC
:1037D000AC42F9D370BD000070B54FF0E025002178
:1037E0006C69094AAB6912785043AA699A42FCD0C5
:1037F00002D2A3EB020302E0A4EB02063344194415
:1038000013468142F1D370BD740000200028FDD022
:103810000021C180018141810846704742890389A6
:103820009A4213D0028903681344521C02811A7809
:103830000A7081880289914201D800210181C188E2
:1038400011B1C188491EC180002070474FF0FF3080
:103850007047002343608360016082801846704790
:10386000428903899A42428901D283881A44038992
:10387000D21A8388521C934210D942890368134498
:10388000521C42811970C188491CC18081884289BB
:10389000914201D800214181002070474FF0FF3054
:1038A000704700002DE9F0410024144D012640F23C
:1038B0000A2700F080F800F069F880B100F07BF88A
:1038C000641CE4B26E7500F0EFF901463B460C4A09
:1038D0000CA002F0DDF8322CEBD3BDE8F08100F053
:1038E0006AF8A520687500F0DFF9BDE8F0410146EF
:1038F00040F20223024A0DA002F0CAB89C06002042
:103900008E6D00085B55382025735D2025733A289D
:1039100025642920464D31373558585F496E697402
:10392000206572726F722E0D0A0000005B55382000
:1039300025735D2025733A2825642920464D3137AB
:103940003558585F496E6974204F4B2E0D0A0000A0
:1039500010B54FF090440121204602F00CFC0A20E3
:10396000FFF72CFF00F027F80121204602F005FCAC
:103970000A20FFF723FF00F01EF8012000F084FE6C
:10398000202801D0012010BD002010BD10B500F08E
:1039900012F801F0ADF8FFF7DBFF10B14FF0FF3088
:1039A00010BD00F008F8002000F005FD032001F034
:1039B0002FF8002010BD02F0A3BB10B5002303E0D8
:1039C00010F8014BCC545B1C9342F9D3002010BD7E
:1039D0000A4601460148FFF7F0BF000000F0010869
:1039E000F8B516480024164D009002F007FB284653
:1039F00002F0C6FA342002F0B5FA02F0B9FA6E14F9
:103A0000042269462846FFF715F848B100F04CF942
:103A1000014656230B4A0CA002F03AF80120F8BDEB
:103A2000241D2D1DB442EBD300F03EF901465D2369
:103A3000044A0FA002F02CF80020F8BD665544336C
:103A400000FC0108846D00085B55382025735D205B
:103A500025733A2825642920466C61736854657380
:103A600074206661696C6564212121200A000000D0
:103A70005B55382025735D2025733A28256429205D
:103A8000466C61736854657374204F4B212121206B
:103A90000A0000002DE9F05F154689468346FFF7CE
:103AA0008AFF02F0ABFAABF10060C0F30906C6F57D
:103AB00080644FEA9028A54200D82C46FFF77BFF90
:103AC0004FF0006000EB882082464FF48062284966
:103AD000FFF773FF00270EE02548F119405CFF282F
:103AE00008D000F0E1F801467D23224A22A001F02F
:103AF000CFFF02E07F1CA742EED3A74214D250466C
:103B000002F03EFA342002F02DFA0020184A04E0B8
:103B100019F800108319401CD154A042F8D3504624
:103B20004FF48072124906E0A0074FEA940200D0D9
:103B3000521C4946584600F06DF8A5420CD100F0E1
:103B4000B3F8014693230B4A12A001F0A1FF02F043
:103B50000FFA0020BDE8F09F281BA144A3440026D3
:103B600085B24FF4806408F10108A542A6D8A4E705
:103B70009B0200203F6D00085B55382025735D20B7
:103B800025733A2825642920D0E8D2AAB2C1B3FD12
:103B90002E0A00005B55382025735D2025733A28D6
:103BA00025642920D0B4CDEAB3C9B9A62E0A0000F5
:103BB0002DE9FC410024124D0E4607460094019465
:103BC000324639462846FFF765FF082269462846EF
:103BD000FFF7F3FE324639466846FEF74AFB18B156
:103BE000641C052CECD301E0052C06D305A001F0E4
:103BF0004FFF4FF0FF30BDE8FC810020FBE70000E5
:103C000000F00108D0B4666C617368B4EDCEF321A6
:103C1000200D0A002DE9F84390468946064602F039
:103C2000EDF900254FF47A771AE00024342002F0F1
:103C300099F959F82510304602F0F0F9B8B1012091
:103C4000FFF7BCFD2046641CB842F8D900F02CF800
:103C500001464123074A08A0009601F019FF6D1C98
:103C60004545E2D302F084F90020BDE8F883361D13
:103C7000F5E70000306D00085B55382025735D20A6
:103C800025733A2825642920D0B4666C617368B323
:103C9000ACCAB12C205B307825785D2C20B4EDCEF9
:103CA000F3212121200A00001FB50D4802F05EFD1E
:103CB0000B48403890F8421090F8464090F8453054
:103CC00090F844208DE81E0090F8413090F8402094
:103CD00004A10B4801F0ECFE04B0094810BD00003F
:103CE000DC060020253278253032782530327820E5
:103CF000253032783A253032783A25303278000053
:103D0000300A0020034610B50020024603E09C5C08
:103D1000521C2044C0B28A42F9DB10BD01488068C1
:103D20007047000024000020064A1178481C1070DB
:103D3000054821B100211170402102F01CBA402138
:103D400002F01BBA7C000020000400480A21B0FBEE
:103D5000F1F201FB1202B0FBF1F002EB0010C0B275
:103D600070470000002909D1054A00284FF00201E0
:103D7000104601D002F001BA02F0FDB97047000010
:103D8000000400482DE9F041114D124E0024314647
:103D900055F8240002F041FF98B10F4904EB4400AC
:103DA00001EB800755F8240002F0F4FEC1B238465A
:103DB000FFF756FD55F824003146BDE8F04102F00A
:103DC00024BF641CE4B2022CE1D3BDE8F081000002
:103DD0004C000020050005070009002010B540F246
:103DE000125002F08DFC0D4C01224023114620465A
:103DF00002F0CAF9402303220021204602F0E8F92C
:103E0000012280231146204602F0BEF9204680237D
:103E10000322BDE81040002102F0DAB90004004896
:103E200013B50C466846FEF7AFF9017E2170017D9F
:103E300064396170017C491CA170017BE170017AD9
:103E400008312171017961710078A07100201CBDD9
:103E5000FEB508212248FFF7BBFD64212148FEF78B
:103E6000F6F91F4D204E00242868B0420BD11FA048
:103E700001F00EFEFFF718FF014641232B4A2CA04C
:103E800001F006FE12E032A001F002FEFFF70CFF87
:103E900001464623254A3EA001F0FAFD10480821BC
:103EA0000C3804610C302E60FFF782FEFFF7FCFE39
:103EB0000146032004220094CDE901204C231B4A33
:103EC0003C4801F0E5FDFFF7EFFE01463AA23DA0B8
:103ED000CDE900024D23154A3DA001F0D9FDFEBDFC
:103EE000300000209C060020AE5634120A0A0A3D1B
:103EF0003D3D3D3D3D3D3D3D3D3D3D3D3D3D3D3DF2
:103F00003D3D3D3D3D3D3D3D3D3D3D3D3D3D3D3DE1
:103F10003D3D3D3D3D3D3D3D3D3D3D3D3D3D3D3DD1
:103F20003D3D3D3D3D3D3D3D3D3D0A004A6D000866
:103F30005B55382025735D2025733A282564292098
:103F40000D5538537562C6F4B6AF4170700A000063
:103F50000A0A0A2A2A2A2A2A2A2A2A2A2A2A2A2A21
:103F60002A2A2A2A2A2A2A2A2A2A2A2A2A2A2A2AB1
:103F70002A2A2A2A2A2A2A2A2A2A2A2A2A2A2A2AA1
:103F80002A2A2A2A2A2A2A2A2A2A2A2A2A2A0A00DB
:103F90005B55382025735D2025733A282564292038
:103FA0000D5538537562B3F5B4CEC6F4B6AF417053
:103FB000700A00004890000831383A32313A303205
:103FC0000000000044656320313320323031380076
:103FD0005B55382025735D2025733A2825642920F8
:103FE0000A0DCEC4BCFEB1E0D2EBCAB1BCE42C20B9
:103FF000D4C2C8D5C4EA20257320CAB1B7D6C3EB52
:104000002573200A00000000C279012A03D0022A89
:1040100003D1FEF77FBDFEF7CDBD704770B50D46ED
:104020000446FFF7C8FCA279012A09D0022A0DD064
:10403000032A11D129462046BDE8704000F01CB883
:1040400029462046BDE87040FFF7DEBF29462046DE
:10405000BDE8704000F001B870BDC279012A08D0F7
:10406000022A08D000210123017202221946FEF71C
:10407000A5BC00F007BE704770B50546C0790024A6
:104080000E46012806D0022825D12846BDE87040FA
:1040900000F0ECBB0A4629460FA000F079FA314641
:1040A000284601F027FA70B1FFF7FEFD014640F205
:1040B0001F230F4A0FA001F0EBFC01242046BDE8AE
:1040C000704001F0F5B9052000F024FA1149A5204F
:1040D00081F82400F2E770BD454E554D5F555047BD
:1040E000524144455F52455155455354000000002C
:1040F0000A6D00085B55382025735D2025733A282A
:1041000025642920B2BBBFC9D2D4C9FDBCB62121C8
:10411000210A00009C06002000B587B010B10128DC
:1041200002D004E0602000E061208DF804008800E7
:104130008DF8050010788DF8060050788DF807008E
:1041400090788DF80800D0788DF8090010798DF8F6
:104150000A0050798DF80B0018788DF80C0058780B
:104160008DF80D0098788DF80E00D8788DF80F0036
:10417000012000F0A6F9FEF777FF05A8009004AB38
:104180000C2201A90E2000F058F838B9082000F0E0
:104190007BFA000702D5002007B000BD0120FBE735
:1041A0007FB504460D46012000F08BF930228DF8D2
:1041B00008208DF80940FEF757FF03A800902B4612
:1041C000022202A90C2000F038F80446FFF76CFD2B
:1041D00001460398CDE900044FF4E373064A07A0B3
:1041E00001F056FC14B90398802802D0012004B0D5
:1041F00070BD0020FBE70000C88E00085B5538202A
:1042000025735D2025733A2825642920726563652E
:104210005F6269746C656E3A202564202C72657348
:10422000756C74203D202564200A000010B5FFF74E
:10423000C2FBBDE8104000F0E5B92DE9F047994612
:104240001446884607460026DDF820A0FEF70CFF3E
:10425000FFF7B1FB20210B2001F015FC7F2104208A
:1042600001F011FC0E2F07D14146204601F0FEFB64
:1042700080210D2000F0C0FB80212A2000F0BCFB33
:104280003946012001F0FFFBFFF795FB042000F009
:10429000FBF90546C00703D020250C2F5CD076E043
:1042A0000E2F11D0042F12D00C2FEDD1680739D565
:1042B000C4B3202C414629D9202001F0D7FB203C53
:1042C000E4B208F1200825E0E806DDD560E06807E3
:1042D00017D5B4B1202C414604D2204601F0C6FBCC
:1042E000002406E0202001F0C1FB203CE4B208F1EC
:1042F000200880210D2000F07FFB0421084601F0FA
:10430000C2FB6806C0D5002CBED141E0204601F0BA
:10431000ADFB002480210D2000F06EFB0421084637
:1043200001F0B1FB280712D5680610D57CB90A2028
:1043300000F0AAF920280AD909EB0601202000F094
:1043400095F92036F6B20821042001F09CFBA8065E
:104350009AD5002C98D100250A2000F095F907463F
:104360000C2000F091F900F007040FB904B1012707
:1043700009EB0601384600F079F9F019C0B21CB11A
:10438000C0000838011900E0C100CAF800101DB9CA
:10439000062000F079F9054680210C2000F02CFB66
:1043A0002021012001F06FFB80210D20FEF750FE3F
:1043B0002846BDE8F08710B50446FFF7FCFA24B1A3
:1043C000012C45D0022C5DD05AE010210C2000F0C9
:1043D00013FB4021152000F00FFB0021122001F0FB
:1043E00052FB0021132001F04EFB8021392000F008
:1043F00003FB01213C20FEF72BFE07213D20FEF7A9
:1044000027FE03213E20FEF723FEFF21332001F08B
:104410003AFB0721322001F036FBF121272001F081
:1044200032FB3F21282001F02EFB0121292001F041
:104430002AFB4021262001F026FB0D21192001F046
:1044400022FB8421182001F01EFB4021362015E0BC
:1044500010210C2001F017FB8321122001F013FB27
:104460008321132001F00FFBF421272001F00BFB27
:10447000F421232001F007FB002120E001F003FBE1
:10448000002010BD10210C2001F0FDFA9221122015
:1044900001F0F9FA9621132001F0F5FAF421272012
:1044A00001F0F1FA2021282001F0EDFA4F2123201C
:1044B00001F0E9FA2021292001F0E5FA0721152071
:1044C000DCE770B540F29F6100244843611E012281
:1044D0004FF6FF7301EBC0011D1102EB4400B1FB6D
:1044E000F0F0984202D3641CAC42F6D385B2C4F318
:1044F00007212A2000F080FAE1B22B2001F0C3FA54
:10450000290A2C2001F0BFFAE9B22D2001F0BBFAF4
:10451000002070BD70B5054600241C4E09E00A203D
:10452000FFF74CF92046641CC82802DD4FF0FF302D
:1045300070BD2021304601F022FE0028EFD1082175
:10454000304601F01AFE6420FFF746F90821304694
:1045500001F011FE6420FFF73FF9002411E0FFF79E
:104560002AFA1021304601F008FE6420FFF734F9E2
:104570001021304601F0FFFD6420FFF72DF9641C87
:10458000E4B2AC42EBD3002070BD00000004004850
:104590007CB515460E460446FFF786FB01465223BE
:1045A000094A0AA0CDE9004501F072FA002404E0AE
:1045B000315D11A001F06CFA641CAC42F8D3BDE887
:1045C0007C400FA001F064BA6B6D00085B55382089
:1045D00025735D2025733A282564292063616C6C5E
:1045E0002062792025732C6C656E3D25642C7064E7
:1045F0006174613A0000000025303258000000006C
:104600000A00000010B5FEF7EBFB174CA07DA528B3
:1046100029D1FFF7D0F90020A07594F83410A5290E
:1046200015D0FFF77BFBE16B01F6B831884204D26D
:10463000FFF774FBE16B884215D2FFF76FFBE06375
:104640000620FFF767FFBDE8104000F0F7BA84F8D6
:1046500034000620FFF75EFF1022BDE8104002493B
:104660002B2000F0E7B810BD9C06002070B50D4669
:104670000646002405E0092000F006F82855641CD1
:10468000E4B2B442F7D370BD00F04EB880210148C7
:1046900001F073BD0004004802F006B910B540F205
:1046A000125002F02DF801231E4C1A4619462046DE
:1046B00001F06AFD012303220021204601F088FD5C
:1046C000012210231146204601F05EFD1023032233
:1046D0000021204601F07CFD0122082311462046DE
:1046E00001F052FD082303220021204601F070FD55
:1046F000202301220021204601F046FD2023032231
:104700000021204601F064FD0121204601F035FD25
:104710001021204601F02FFD2046BDE81040082161
:1047200001F029BD0004004870B504464FF09045E3
:104730001021284601F01FFD802040EA4400C0B24D
:1047400000F02EFA00F029FA04461021284601F064
:1047500014FD204670BD70B50E4604464FF09045DE
:104760001021284601F007FD7E2000EA440000F0F9
:1047700017FA304600F014FA2846BDE870401021C0
:1047800001F0FBBC3EB50C46AA2121705521617099
:10479000E071101DA0810120A073D01C81B21546CC
:1047A00004F10E00FFF7AEFA61194874FFF77CFAC6
:1047B0000146207CA37C627C8DE80D001023094A11
:1047C00009A001F065F905F112021546214614A071
:1047D000FFF7DEFE03B0AAB22146BDE8304000205C
:1047E00001F0E0B8996C00085B55382025735D2016
:1047F00025733A2825642920704672616D652D3E27
:10480000686561642E636D64203D205B2523785DBF
:104810002C205B25645D2C205B25645D0A00000074
:10482000B7A2CBCDCAFDBEDDB8F8B2FAB2E2C8ED90
:10483000BCFE0000F0B5A1B00F460646154680212B
:104840006846FDF704FD8DF8106001208DF8110019
:104850006C462A4639460DF11200FDF7DFFC6A1C52
:1048600021460020FFF78EFF21B0F0BD70B5234E2A
:1048700000F10804002596F82400A52801D00125A0
:104880000FE02046FEF764FA022810D048B1012557
:10489000FFF70AFA01464FF40173194A19A001F013
:1048A000F7F82178284600F057F8002070BD2178ED
:1048B000002000F051F84FF47A742046FEF77EFF96
:1048C0002F20FFF727FEFFF7EFF901464FF4FC73A7
:1048D0000B4A14A001F0DCF8002086F824002046E2
:1048E000FEF76CFFBFF34F8F19480168194A01F4B6
:1048F000E06111430160BFF34F8FFEE79C0600208B
:10490000F76C00085B55382025735D2025733A2825
:1049100025642920C9FDBCB6B4EDCEF32121210ABE
:10492000000000005B55382025735D2025733A2870
:104930002564292044454255475F434D445F524515
:10494000424F4F54D6D8C6F4CFB5CDB3A3A10A0079
:104950000CED00E00400FA0530B5A1B00C460546A8
:1049600080216846FDF773FC8DF8085002236846E5
:104970008DF8094003221946FEF720F821B00020E7
:1049800030BD00001CB56946FFF74AFA9DF80100EA
:10499000FFF7DCF9164B03F8400F9DF80200FFF714
:1049A000D5F958709DF80300FFF7D0F998709DF87D
:1049B0000000FFF7CBF9D8709DF80400FFF7C6F9A7
:1049C00018719DF80500FFF7C1F958719DF80600B0
:1049D000FFF7BCF998710748016819814068588150
:1049E0000020D86018610248403001F0EDFE1CBD87
:1049F0009C0600208000002070B50C460546FFF79D
:104A000043FE40EA0401284601F03DF8002070BD55
:104A100070B50446FEF7CFFF1420FFF735FE00F017
:104A20000300A04201D1002070BD34B1012C06D09A
:104A3000022C0ED0032C0ED006E0032100E0012151
:104A40001420FEF705FB0546C820FEF7B7FE2846F2
:104A500070BD0221F4E703211420FFF7CDFFF2E738
:104A600010B540F2125001F04BFE074C0122022318
:104A70001146204601F088FB204602230322BDE8B0
:104A80001040002101F0A4BB0004004810B5002430
:104A900018210C48FDF7DBFB0A48092104EB44020E
:104AA00000EBC2025170641CF8D0012181713421E5
:104AB000C171FFF7D5FF3421BDE81040002000F0A0
:104AC0006FBA0000180A002058B109280CD00A2833
:104AD0000DD00123401E834003EA01001146FFF779
:104AE00041B911460020FAE711460120F7E7704767
:104AF00010B540F2115001F003FE01224FF0904436
:104B000010231146204601F03FFB10230322002111
:104B1000204601F05DFB01231A461946204601F0AC
:104B200033FB012303220021204601F051FB012227
:104B300020231146204601F027FB202303220021D9
:104B4000204601F045FB012280231146204601F05A
:104B50001BFB802303220021204601F039FB402368
:104B600001220021204601F00FFB402303220021F7
:104B7000204601F02DFB0121204601F0FEFA102114
:104B8000204601F0FAFA8021204601F0F6FA20468C
:104B9000BDE81040202101F0EEBAA520AFF300805F
:104BA0002DE9F041054600244FF0904728064FF0CC
:104BB0008001384602D501F0E0FA01E001F0DBFAAD
:104BC0002021384601F0D9FA0120FEF705FE6806DB
:104BD000060E4021384601F0D2FA40EA06052021AF
:104BE000384601F0C8FA0120FEF7F6FD641CE4B275
:104BF000082CDBD32846BDE8F0812DE9F0410546BD
:104C00000C460846FDF72EFB064600230FE0E05C4D
:104C1000FDF7FAFE0746E0184078FDF7F5FE03EBD6
:104C2000D37105EB610140EA071008709B1CB34289
:104C3000EDDB06EBD6704010BDE8F08110B5A0B0FA
:104C400080216846FDF703FB00218DF808106C46B3
:104C5000102208490DF10900FDF7E0FA01230222B4
:104C600015212046FDF7AAFE03A000F011FF20B099
:104C7000002010BD9C060020BFA8BAC5C9CFB1A8AE
:104C8000210D0A0010B5007A28B105A000F000FF40
:104C90004FF0FF3010BD08A000F0FAFE002010BD5C
:104CA000D6F7B0E5B6C1BFA8D3A6B4F02C20B4EDBA
:104CB000CEF3210D0A000000CAD5B5BDD6F7B0E588
:104CC000B6C1BFA8D3A6B4F0210D0A0070470000FA
:104CD0001A48016841F00101016001688907FCD5AB
:104CE0004168174A114041604168164A11404160CD
:104CF0000168154A11400160C16A144A1140C1623D
:104D0000016B40F2031291430163016B21F4803186
:104D10000163016B21F000410163416B21F001014E
:104D20004163D0F8C01021F48031C0F8C0100021D8
:104D30008160C0F8CC1001F001BE000000100240FC
:104D40000C00FF08FFFFC277FFFFF2FEF0FFFF3FFE
:104D500010B540F61A1001F047FC01281ED040F6AD
:104D60001B1001F041FC01281FD040F61C1001F07F
:104D70003BFC012820D040F61D1001F035FC012835
:104D800021D040F61E1001F02FFC012822D040F661
:104D90001F1001F029FC012823D02AE0FEF784FF30
:104DA00001466223154A16A021E0FEF77DFF014669
:104DB0006623124A1CA01AE0FEF776FF01466A231A
:104DC0000E4A21A013E0FEF76FFF01466E230B4A47
:104DD00025A00CE0FEF768FF01467223074A2BA0CE
:104DE00005E0FEF761FF01467623044A30A000F09B
:104DF0004FFEBDE8104001F017BB0000596D0008E0
:104E00005B55382025735D2025733A2825642920B9
:104E1000CFB5CDB3CDE2B2BFB8B4CEBBB9DCBDCC5B
:104E2000B8B4CEBB0A0000005B55382025735D2066
:104E300025733A2825642920CFB5CDB3C9CFB5E76E
:104E4000B8B4CEBB0A0000005B55382025735D2046
:104E500025733A2825642920CFB5CDB3C8EDBCFE13
:104E6000B8B4CEBB0A0000005B55382025735D2026
:104E700025733A2825642920CFB5CDB3B6C0C1A289
:104E8000BFB4C3C5B9B7B8B4CEBB0A005B553820B0
:104E900025735D2025733A2825642920CFB5CDB32D
:104EA000B4B0BFDABFB4C3C5B9B7B8B4CEBB0A009B
:104EB0005B55382025735D2025733A282564292009
:104EC000CFB5CDB3B5CDB9A6BAC4B8B4CEBB0A0080
:104ED00010B5042001F076FD0B480C490C4B00681E
:104EE000B0FBF1F2B0FBF1F14FF47A7041434FF0B7
:104EF000E0201A70026942F0020202614161016918
:104F000041F00101016110BD8800002040420F0006
:104F10007400002070B5174D154C0121284601F092
:104F200003FE00281BD00121284601F0F9FD61791C
:104F300020790022FFF7C8FD2079401C20712079DC
:104F40000B280CD1E08A401C80B2E082A18A884202
:104F500006D2E18A2069405C60710020207170BD3A
:104F6000A52020702846BDE8704001F077BD000004
:104F7000180A0020002C014010B501218C072046A2
:104F800001F0D2FD002807D00121204601F0C8FD24
:104F900002488168491C816010BD00002400002087
:104FA0007FB504461E480E4630F8140001F0A8FBF9
:104FB0001B4D123555F8240001F016FD5320ADF8B5
:104FC00000000020ADF80C00ADF80200ADF80400C0
:104FD00002968DF80E0055F82400694601F04CFD4C
:104FE00055F82400012101F097FD55F82400012116
:104FF00001F03EFDA5F114000122005D114601F013
:10500000B7F955F8240001F0E9FC55F8240001F047
:105010002AFD002C02D1286801F020FD7FBD000090
:10502000260000202DE9F0438DB0064600200190B7
:105030000290039004900590086008710C462021AE
:105040008DF818108DF81C008DF820008DF82400C4
:1050500080211220FDF7FCFF80211320FDF7F8FFCF
:1050600080210E2000F00FFD00211D2000F00BFD1F
:105070000DF128080DF1040904AD8DF828609DF8A4
:1050800018008DF829009DF81C100D2000F0FBFC85
:105090009DF82420214608F10200FDF7BFF89DF895
:1050A0002400801CC7B20120FFF70BFA02AB3A467E
:1050B0000AA90C20CDF80090FFF7BFF8202867D090
:1050C00000072AD50E20FFF7DFFA00F01F0709AB13
:1050D00008AA06A9384600F01EF907A9384600F0CC
:1050E000F9F89DF8242002A904A8FDF797F89DF887
:1050F00024009DF82020284410F8011D1140017063
:10510000002205E0A05CA95C0843A054521CD2B266
:105110009DF824008242B0D2F4E70198082802D911
:10512000C0F3C70600E001269DF8240018B131182D
:1051300006292DD107E0052E2AD1324602A92046A4
:10514000FDF76CF816E02844324602A9401EFDF730
:1051500065F800200CE09DF8241001440A19294448
:1051600012F8013D11F8011C0B43401C1370C0B232
:10517000B042F0D320786178E2784840A17851407D
:1051800048402179884203D100200DB0BDE8F0836A
:105190000120FAE770B515460E46044600F038F8CF
:1051A00080B9617871B9217889090CD13146932091
:1051B000FFF738FF30B92A463146932000F059F8FE
:1051C000002800D0012070BD1FB550208DF80400CC
:1051D00000208DF8050001460D2000F054FC8021D0
:1051E0001220FFF709FC80211320FFF705FC08219E
:1051F0000846FDF72DFF0120FFF763F903A8009093
:1052000002AB022201A90C20FFF717F804B010BD71
:105210001FB504460020029080211220FDF718FFE0
:1052200080211320FDF714FF08211320FFF7E4FB72
:1052300007210D2000F027FC26208DF80C0001200E
:10524000FFF73FF902A8009001AB012203A90C204F
:10525000FEF7F3FF10B90298102802D0012004B025
:1052600010BD9DF8040020709DF8050060700020BE
:10527000F5E770B50C46064686B0154600210D20B0
:1052800000F001FC80211220FFF7B6FB80211320E3
:10529000FFF7B2FB8DF8046070208DF80500002048
:1052A00001A9225C0B18401CC0B29A700528F8D3E3
:1052B0000120FFF706F905A8009003AB072201A91A
:1052C0000C20FEF7BAFF002802D19DF80C102970BF
:1052D00006B070BDE8B1421E082A02D200EB0010F1
:1052E00017E0A0F109030201082B03D2803A104411
:1052F00008380EE0A0F11103082B02D21044103838
:1053000007E0A0F11903072B04D2A2F5C0721044E4
:10531000183808707047F0B5042510B958240C707F
:105320001D70441E0126082C02D221340C701E7000
:10533000A0F10904082C03D231340C7002241C7033
:10534000A0F111040327082C02D241340C701F7005
:10535000A0F11904072C02D2383008701D700878AB
:1053600000F00700092807D2DFE800F0060507096A
:105370000B0D0F1113001670F0BD1770F0BD072054
:1053800008E00F2006E01F2004E03F2002E07F201D
:1053900000E0FF201070F0BD2DE9F05F8946044663
:1053A0003E4900EB440001EB800A3D48934630F84B
:1053B000140001F0A5F93A48001D30F8140001F07E
:1053C0009FF9374F01212037A7F1100857F8242003
:1053D00058F8240000F0A4FE07F10805A5F1100616
:1053E00055F8242056F82400012100F099FE57F8C2
:1053F000243058F824000122022100F0C5FE57F89D
:1054000024004FF6FF7703463A46002100F0E0FE05
:1054100055F8243056F824000122022100F0B4FE91
:1054200055F8243056F824003A46002100F0D0FE0A
:10543000203D55F8240001F0B5FB55F824005946ED
:1054400001F07CFB55F82400042101F0FEFB55F827
:105450002400082101F001FCB9F1010F16D155F823
:105460002400052101F0C6FBA5F10C000122005D1E
:10547000022100F07DFF0B484FF4807200EB042105
:105480005046FEF7E6F95046FEF7C0F955F82400FD
:1054900001F0A0FB0020BDE8F09F00000009002003
:1054A0004400002000070020FEF76CBCFEF76ABC39
:1054B00030B5A1B0054680216846FCF7C8FE6C46B1
:1054C00001238DF80850032219462046FDF776FA8D
:1054D0000B22214602A0FFF75BF821B0002030BD6F
:1054E0005570677261646552657175657374416367
:1054F0006B0000007FB5204D816800242960C168E1
:105500006960018A2981807CA872FEF7CDFB014683
:105510002868AE7A2B896A688DE84D0040F2B11395
:10552000164A174800F0B4FA16480121816200219A
:10553000C1620163286898B1686888B100F05EFDB7
:10554000114D05EB842000F01BFD342000F00AFD16
:10555000641C3A2CF5D300F00BFD002004B070BDA4
:10556000FEF7A2FB014640F2B913044A07A000F07F
:105570008FFA4FF0FF30F1E790010020E16C000856
:10558000AC8F00089C060020000801085B553820FD
:1055900025735D2025733A282564292066696C658A
:1055A00073697A65206F72207061636B6167652033
:1055B0006F722066775F766572736F6E2C206572EE
:1055C000726F722121210000F8B500258DF800507E
:1055D0002C46FEF7F0F90D4E0D4F09E00122694609
:1055E000E019FEF7EAF99DF80000641C284485B232
:1055F0003068A042F2D83289AA4205D0294605A0D7
:1056000000F046FA0120F8BD0020F8BD900100200E
:1056100000080108D0A3D1E9B3F6B4ED2121215B44
:105620002523785D2C205B2523785D0D0A00000082
:105630002DE9F0416D4F0D4601466D4A386B8CB037
:10564000104400242A46FEF725FA01284AD0386B78
:10565000684E2844642148433168B0FBF1F8FEF7F6
:1056600023FB3A6B33682A44CDE900320146CDF87A
:1056700008803823604A61A000F00AFAB86A7168AD
:1056800088427DD100297BD03A6B31682A4491420F
:10569000F7D1FEF709FB01463C23574A62A000F010
:1056A000F7F972686CA0B96A00F0F2F9386B3268E9
:1056B000411971A000F0ECF9FEF7F6FA0146386BDB
:1056C00000903F234C4A73A000F0E2F9FFF77CFF03
:1056D00060B1FEF7E9FA01464323474A7CA000F097
:1056E000D7F97AE085A000F0D3F976E08A4F8B4DA8
:1056F0004FF00008CDF82880CDF81480CDF8188040
:10570000CDF81C803089ADF828003068CDE908500C
:1057100000F074FC384600F033FC342000F022FC2A
:1057200000F026FC0A2208A93846FEF7B3F90A223F
:1057300005A93846FEF741F91420FEF73FF80A2282
:1057400008A93846FEF739F9BDF8280031898842A2
:1057500023D10999326891421FD10899A9421CD1DD
:10576000BDF81C10884218D106990998884214D1B6
:1057700005990898884210D1FEF796FA014600E094
:105780002DE05D231C4A66A000F082F93020FEF770
:10579000C1FE02200CB0BDE8F081FEF785FA01469B
:1057A000DDE90832BDF828008DE80D006423124AB7
:1057B00064A000F06DF9FEF777FA0146326830898F
:1057C000CDE9000265230C4A6D4800F061F9032C15
:1057D00003D0641C032C8DD306E00120DAE7401CC3
:1057E000B862386B284438630020D3E79C06002059
:1057F0000008010890010020C16C00085B553820AA
:1058000025735D2025733A2825642920746F7461FF
:105810006C2025642C6765742025642C205B25642E
:1058200025255D2E0A0000005B55382025735D207C
:1058300025733A2825642920D7EEBAF3D2BBB8F6EF
:10584000B0FCD2D1BEADD0B4CDEA2C20BFAACABC28
:10585000D0A3D1E92E0A000043757272656E7450B0
:1058600061636B616765203D205B25645D2C205B77
:1058700025645D0A00000000526563656976655322
:10588000697A65203D205B25645D2C205B25645D85
:105890000A0000005B55382025735D2025733A28E7
:1058A00025642920476C6F62616C496E666F2E55C6
:1058B00070677261646546772E416464724F6666F4
:1058C000736574203D205B2523785D2E0A0000005F
:1058D0005B55382025735D2025733A2825642920DF
:1058E0007570677261646520636865636B73756D5D
:1058F000206572726F722E0A000000003131313162
:10590000313131313131313131313131312C206569
:1059100072726F722100000000FC0108DEBC55AA03
:105920005B55382025735D2025733A28256429208E
:105930007570677261646520737563636573732E38
:105940000A0000005B55382025735D2025733A2836
:105950002564292075706772616465206572726FB5
:10596000722C205B2523785D2C205B2523785D2C11
:10597000205B2523785D2C206572726F722E0A00E1
:10598000FC8F000810B54FF4964201210020FFF76C
:1059900003FD0121BDE810404FF4E1320846FFF756
:1059A000FBBC00002DE9F047174688460546002459
:1059B0000E4E40F2077910E0FDF7FDFF18F80410D5
:1059C00056F8250001F0EAF856F82500494601F09E
:1059D00006F90028F8D0641CA4B2BC42ECD3142011
:1059E000FDF7ECFE0020BDE8F08700004C00002031
:1059F00070B5124E054600240221304600F0BBFB74
:105A00000820FDF7E9FEE8074FF00201304602D01A
:105A100000F0B3FB01E000F0AEFB0820FDF7DCFE78
:105A2000641C6D08E4B2082CEDD30221304600F06E
:105A3000A4FBBDE870400820FDF7CEBE000400487E
:105A400010B54FF41064204600F0DEFD204600F053
:105A5000E9FD0128FAD104214FF47F6000F028FB12
:105A600000F04EFBBDE8104000F052BB70B50D4693
:105A70000646002404E0295D092000F004F8641CB7
:105A8000B442F8D370BD10B5FEF765FE002010BD1E
:105A90000FB4054B10B503A9044A029800F02CF886
:105AA00010BC5DF814FB0000516000088C00002061
:105AB0000FB4084B10B504A902AA039800F01CF813
:105AC000044602A9002000F048FA204610BC5DF808
:105AD00014FB00005B5F000802E008C8121F08C149
:105AE000002AFAD170477047002001E001C1121F5F
:105AF000002AFBD1704700002DE9FF4F8DB00F4603
:105B00000546002606E025280BD0DDE90F12904758
:105B10006D1C761C28780028F5D111B03046BDE800
:105B2000F08F0024A246A1460122EC4900E0044384
:105B300015F8013F203B02FA03F00842F7D128781C
:105B40002A2810D06FF02F022878A0F130010929FF
:105B500014D80AEB8A0102EB410144F0020400EB85
:105B6000010A6D1CF0E701CF5FEA000A03D544F497
:105B70000054CAF1000A44F002046D1C28782E2853
:105B800017D115F8010F44F004042A280ED06FF045
:105B90002F022878A0F1300109290AD809EB8901E0
:105BA00002EB410100EB01096D1CF2E757F8049B81
:105BB0006D1C28786C280FD006DC4C2817D068287C
:105BC0000DD06A2814D104E0742810D07A280FD19F
:105BD0000DE044F400140AE044F4801401E044F4BD
:105BE00040146978814202D104F580146D1C6D1C4B
:105BF0002A786E2A1FD00CDC632A31D004DC002AFC
:105C00008BD0582A11D1A3E0642A68D0692A0CD11C
:105C100065E0732A2ED004DC6F2A73D0702A04D179
:105C20009BE0752A6FD0782A6ED01046DDE90F12FE
:105C30009047761C50E1C4F30250022806D0032896
:105C400009D0042801CF09D0066045E101CFF11742
:105C5000C0E9006140E101CF06803DE106703BE113
:105C600017F8040B8DF8000000208DF80100EB46BA
:105C7000012003E057F804BB4FF0FF3061074FF0FD
:105C8000000102D40DE008F10101884649450FDA10
:105C90008045F8DB1BF808100029F4D108E008F172
:105CA000010188468142FADB1BF808100029F6D171
:105CB000DDE90F23AAEB08008146214600F036F902
:105CC000304400EB080604E0DDE90F121BF8010B7D
:105CD0009047B8F10108F7D221464846F7E00A217B
:105CE000C4F302534FF0000B0891022B04D001CFF4
:105CF000C117032B09D00AE0FF1D27F00707F7E8BB
:105D0000020108E032E01FE020E000B2C117042BDE
:105D100001D140B2C117031E71F1000307DA4FF041
:105D2000000CD0EB0C006CEB01012D2302E02305ED
:105D300004D52B238DF82430012303E0E30701D0A1
:105D40002023F7E7984658E00A2110E010210EE0E2
:105D500010204FF0000B08900CE010214FF0000BCA
:105D600044F004044FF00809089103E008214FF0C3
:105D7000000B0891C4F30253022B04D001CF002181
:105D8000032B06D006E0FF1D27F00707F7E8020106
:105D900003E080B2042B00D1C0B24FF0000823070B
:105DA0002BD5702A07D0DDF820C08CF0100C5CEAEF
:105DB0000B0C05D00EE040238DF82430012308E0C1
:105DC00050EA010306D030238DF824308DF82520C9
:105DD00002239846DDF820C08CF0080C5CEA0B0C1E
:105DE0000BD150EA010301D1630706D530238DF8AA
:105DF00024304FF00108A9F10109582A04D038A233
:105E00000B9208AA0A920BE03AA2F9E75B46089ABD
:105E1000FCF73CFA0B9B9B5C0A9A521E0A92137089
:105E200050EA0102F2D10A98ADEB000000F1200B1C
:105E3000600702D524F4803401E04FF00109D94510
:105E400002DDA9EB0B0000E0002000EB0B01414458
:105E50000890AAEB010AE00306D4DDE90F232146EE
:105E6000504600F063F806444FF0000908E009A925
:105E700011F80900DDE90F12904709F10109761CBC
:105E8000C145F4DBE0030CD5DDE90F232146504684
:105E900000F04CF8064404E0DDE90F123020904792
:105EA000761C0899481E08900029F5DC08E00A983D
:105EB0000A990078491C0A91DDE90F129047761C77
:105EC000BBF10001ABF1010BF1DC21465046DDE9ED
:105ED0000F2300F019F806446D1C1BE60928010089
:105EE0003031323334353637383961626364656650
:105EF0000000000030313233343536373839414212
:105F000043444546000000002DE9F04104460025C9
:105F10001E461746880404D405E039462020B047C1
:105F20006D1C641EF9D52846BDE8F0812DE9F041CD
:105F3000044600251E469046C80301D5302700E0E0
:105F40002027880404D505E041463846B0476D1C3B
:105F5000641EF9D52846BDE8F0810A68531C0B6021
:105F6000107070470149C86070470000002002406F
:105F70000248016941F08001016170470020024040
:105F800070B505464FF47026304600F017F800282B
:105F900010D1094C206940F0020020616561206940
:105FA00040F040002061304600F008F8216921F0FF
:105FB0000201216170BD00000020024000B50346CF
:105FC00000F008F85B1E012802D1002BF8D1042054
:105FD00000BD000008490020CA68D20701D0012096
:105FE0007047CA68D20601D503207047C9684907BF
:105FF000FBD50220704700000020024004480169E0
:10600000090603D503494160034941607047000018
:106010000020024023016745AB89EFCDF0B506466D
:106020004FF470270D463846FFF7C8FF00280CD103
:10603000064C206940F00100206135603846FFF7CA
:10604000BDFF216921F001012161F0BD0020024066
:1060500070B50446FDF7AFFC124890F83500A5284E
:1060600010D0114D68880026FF2817D868880F497E
:106070000144401C68800C700A2C07D00D2C05D000
:1060800024B109E0E0B2FFF7B3FC05E06A880749F4
:106090000020FFF787FC6E80204670BD4FF48072B1
:1060A000F5E700009C0600204000002018090020B1
:1060B00030B5124D104B45F255541A462C60EC6821
:1060C000521E04F0010402D0002CF8D100E04CB9BB
:1060D0006960E9685B1E01F0020102D00029F8D175
:1060E00002E009B1002030BDC0F30B00A8604AF601
:1060F000AA202860012030BDFFFF0F0000300040C3
:1061000002494AF6AA2008607047000000300040AB
:1061100002494CF6CC400860704700000030004057
:10612000F0B5046A456A00234FF0010C4FF00F0EE2
:106130000CFA03F6164206D09E000EFA06F7BC4390
:1061400001FA06F73C435B1C9BB2082BF0D30823F3
:106150000CFA03F6164207D09E00203E0EFA06F710
:10616000BD4301FA06F73D435B1C9BB2102BEFD3F6
:1061700004624562F0BD81627047816170470069C9
:10618000084000D0012070472DE9F0470568C66837
:1061900000244FF0010A4FF003090AFA04F71F42E6
:1061A0000ED0670009FA07FC25EA0C0526EA0C0662
:1061B00001FA07F802FA07FC48EA05054CEA060668
:1061C000641CA4B2102CE8D30560C660BDE8F0875B
:1061D000F0B50129416830D09943416084680126B7
:1061E0000327A2F57F41FF3913D0002106FA01F5FC
:1061F0001D4208D04D0007FA05FC24EA0C0402FAFF
:1062000005FC4CEA0404491C89B21029EED38460D1
:10621000F0BDC26B002106FA01F51D4206D04FEA1F
:10622000410C07FA0CFC4CEA04042A43491C89B2CD
:106230001029F0D38460C263F0BD1943CDE700009C
:1062400008B5FDF76BFD804647463E460546B1461C
:10625000FDF764FD4FF40051880300F0D3F84FF4CC
:10626000407000F0C5F8FCF7CBFC3348FEF78AFB22
:10627000DFF8C8B041F2883AFDF79DFBFDF74EFD0F
:10628000044606EB0A01A14201D9A6420DD9FDF749
:106290000BFD01462A4862232A4A006800902AA082
:1062A000FFF7F6FB2646FEF7F1F9FDF737FD01464D
:1062B00009F5FA70814203D2FDF730FD484504D25A
:1062C000FDF72CFD8146FDF72FFD05F5FA70A04284
:1062D00001D9A5420FD99BF824002546A52805D051
:1062E0000020FCF7EFFC08B9FDF7A0FF0120FCF748
:1062F000E9FCFDF760FB9BF82300A5280AD007EB1B
:106300000A00A04201D9A74204D9FDF754FB274651
:10631000FCF720FCFDF72EF9FCF7B2FE4EF66021EB
:1063200008EB0100A04201D9A045A5D9FDF743FB28
:10633000A046FCF7D1FB9FE7B3AA005C9C060020B7
:10634000880000206A6C00085B55382025735D20AA
:1063500025733A282564292053797374656D436F3A
:106360007265436C6F636B5B25645D0A000000001F
:1063700030B51E4D002423462D6805F4E065B5F5C3
:10638000A06F12D006DCB5F5407F14D0B5F5806F54
:1063900012D10DE0B5F5C06F04D0B5F5E06F0BD1AB
:1063A000042309E00124032306E00224234603E03A
:1063B0000324012300E00424C4F10404A140C3F138
:1063C00004040F23E34013400B4300F1E0221901C2
:1063D00082F8001400F01F02012191404009800062
:1063E00000F1E020C0F8001130BD00000CED00E02D
:1063F0000249084302490860704700000000FA059E
:106400000CED00E0024A1140014302480160704770
:1064100080FFFF1F08ED00E00248016841F4807131
:1064200001607047007000400248416A41F080718D
:1064300041627047001002402DE9F04760A288B029
:1064400074CA8DE874005FA2614ED2E90042CDE9C2
:1064500004425CA28046D2E90042CDE90642002017
:106460007268014603465B4DC2F381021AB1012AEC
:1064700001D0022A01D02A4623E072687468C2F370
:106480008342C4F3C067F46AE40F0FB1113200E035
:10649000921C04B11F327468F76AC4F30044C7F356
:1064A000807764B1F46A04F00F04641C27B14A4F8A
:1064B000B7FBF4F4624304E0B5FBF4F4FAE7474CAD
:1064C00062437468C4F303141DF8047022FA07F4DD
:1064D00077680DF1100CC7F302271CF8077024FA37
:1064E00007F977680DF1180CC7F3C2274FF4004A7B
:1064F0001CF8077024FA07F7B8F1070F06D2DFE897
:1065000008F004080A0C0E3C4400104608B0BDE830
:10651000F0872046FAE74846F8E73846F6E7306B5A
:10652000C00506D4306BC00301D42D4923E02D49AA
:1065300021E07068C0F38132306BC00F32B1012AA4
:1065400009D0022A0ED0032A15D110E008B1032089
:1065500003E079080FE018B10520B7FBF0F10AE07D
:10656000B90808E008B10720F7E70620F5E708B109
:106570000920F2E7F9080846C8E7306B400602D464
:1065800048F21200C2E75046C0E7306B80070ED0D9
:10659000306B00F0030001280BD0306B00F00300DB
:1065A000022808D0306BC043800706D006E03B4687
:1065B00004E0134602E0534600E02B461846A5E7E8
:1065C00000000000000000000102030406070809A3
:1065D0000010024000127A00006CDC0200093D004D
:1065E000809FD500003FAB01064A02EB901109687D
:1065F00000F01F0201209040014201D001207047AD
:106600000020704700100240054901EB90110A6814
:1066100000F01F030120984002430A607047000009
:106620000010024070B500234FF40066334D1C4645
:10663000B0421BD005DC30B310280ED018285AD138
:106640004DE0B0F5106F3FD0B0F5506F26D000F59B
:106650007F60B0F5804F4ED12BE01120FFF7C4FFD3
:106660005B1C08B9B342F8D1112040E040F60106A6
:106670006FF07C453046FFF7B7FF5B1C08B9AB42B3
:10668000F8D1304633E04FF4A0650120FFF7ACFFAE
:106690005B1C08B9AB42F8D1012028E040F6015656
:1066A0003046FFF7A1FF5B1C0028EAD1AB42F7D1CF
:1066B000E7E743F211063046FFF796FF5B1C002820
:1066C000DFD1AB42F7D1DCE740F601163046FFF7E9
:1066D0008BFF5B1C0028D4D1AB42F7D1D1E7192046
:1066E000FFF782FF5B1C08B9AB42F8D11920FFF716
:1066F0007BFF00B10124204670BD0000FFFF0F00AA
:10670000054901EB90110A6800F01F030120984031
:1067100002430A607047000000100240054901EB87
:1067200090110A6800F01F030120984082430A601C
:106730007047000000100240054901EB90110A6803
:1067400000F01F030120984002430A6070470000D8
:106750000010024004490A6A22F440720A620A6A7E
:1067600002430A62704700000010024030B515492C
:106770000B68091D0968134A10321268114C08345D
:1067800024680D0C0570C1F30425457001F03F0528
:106790008570C1F34231C170C3F305410171C3F388
:1067A0000621417103F07F018171C2F3064101812D
:1067B000C2F30E01418102F48001C16004F0400186
:1067C000016130BD00280040F0B504460078E17852
:1067D000E6684D0360F31F4560784FF4F85101EA15
:1067E00000200543A0784FF47C1100F03F000543E2
:1067F00020791B4F01EA0040064360794FF4FE41C7
:1068000001EA0020A17901F07F0108430643CA2074
:1068100038605320386000F025F8E8B120894FF443
:10682000FE0101EA00406189C1F30E0108430C49F1
:10683000143908600A4824380660001D0560001DF0
:10684000016821F040010160016822691143016083
:1068500000F022F800F04AF8FF213960F0BD000096
:10686000242800400B4B4FF4804100201A68520648
:106870000DD41A6842F080021A601A68491E02F0AC
:10688000400202D0002AF8D001E0002A00D0012006
:10689000704700000C2800400248016821F0800188
:1068A000016070470C28004010B540F21C70FFF7E3
:1068B00027FFFFF7B1FD4FF400642046FFF7A4FE69
:1068C0002046FFF7AFFE2046FFF744FF0648FF21B2
:1068D00041607F21016040F60F00FFF711FFBDE826
:1068E000104000F003B800008000002018B51249E5
:1068F0004FF4004000900968002089061AD40E4C1D
:10690000CA211C342160532121600B4B1B1D1968C7
:1069100021F020011960196801F020020099491E38
:10692000009102D0002AF6D000E002B10120FF2140
:10693000216018BD012018BD082800401E48002114
:10694000026842F480320260C3140268491C12F4E7
:10695000003F01D19942F8D1016889032BD54168E4
:106960004160416841F400514160416841F48061F7
:1069700041604168114A11404160C16A21F04041C3
:10698000C162C16A41F00101C16241680C4A114310
:106990004160016841F08071016001688901FCD5A6
:1069A000416821F003014160416841F0020141600A
:1069B00041680907FCD5704700100240FFFFC2770D
:1069C000000011084FF0E0210428086903D020F0EE
:1069D00004000861704740F00400FAE7016841F0E4
:1069E00080010160704700001A4A10B5811A4FF407
:1069F000E05390421DD00ADCB0F1804F1CD0164904
:106A000040181CD0984223D14FF4816409E0B1F5BD
:106A1000A05F17D0B1F5C05F17D0994218D140F2EE
:106A200012342046FFF788FE2046BDE81040FFF7ED
:106A300075BE40F20B34F4E74FF48064F1E740F2A6
:106A40000144EEE74FF44474EBE740F21134E8E719
:106A500010BD0000002C014000FCFFBF016821F0C8
:106A6000010101607047016841F001010160704758
:106A700002698A4302617047F0B50A888262204A3F
:106A8000204B4FF08047904203D0B84201D098424B
:106A90000BD1046824F07004046004684D882C4312
:106AA000046004688D882C4304608C68C462164CB2
:106AB000164D174E90420CD0B8420AD0984208D0DA
:106AC000144B984205D0A04203D0A84201D0B04256
:106AD00007D1036823F44073036003688F893B4345
:106AE0000360904205D0A04203D0A84201D0B0423A
:106AF00001D1897B0163416941F001014161F0BD30
:106B0000002C0140000400400040014000440140CE
:106B10000048014000200040C2680A43C26070473C
:106B200002698A4302617047C26800690A400842EC
:106B300002D00AB1012070470020704770B50D46A1
:106B4000044613490020611804D0B1F5744F04D1F4
:106B5000062000E00220FFF76FFC21680A044FF6D0
:106B6000F07108D5400000EB5500B0FBF5F0014096
:106B700000F0070206E000EB5500B0FBF5F0014025
:106B800000F00F02E06811430843E06070BD0000B0
:106B900000BCFFBF406AC0F308007047C1F30801A2
:106BA000816270470A4910B5401805D0B0F5744F9E
:106BB0000CD140F20E3401E040F211442046FFF7C0
:106BC000BBFD2046BDE81040FFF7A8BD10BD00008A
:106BD00000BCFFBF016841F001010160704700EB9C
:106BE0009110006801F01F0201219140084000D07F
:106BF0000120704710B5C1F38912835801F01F04BA
:106C00000121A1400B43835010BD026AC1F304432C
:106C1000012199400A430262704730B5C1F38912DD
:106C2000825800EB915001F01F05012404FA05F38E
:106C300000681A40C1F3044104FA01F3184202D07B
:106C40000AB1012030BD002030BD026822F00402EC
:106C5000026002680A4302607047026822F008027C
:106C6000026002680A43026070476D61696E00420B
:106C700073774472765F464D31373558585F5365A8
:106C800074506F776572446F776E00436865636B0D
:106C90005F4D315F436172640053656E64446562A9
:106CA0007567506B74004465627567506B74507201
:106CB0006F630044656275675265637650726F63F7
:106CC00000557067726164655F577269746500434F
:106CD0004F4D5F557067726164655F577269746587
:106CE00000557067726164655265717565737448AB
:106CF000616E646C65720053656E64557067726195
:106D000064655061636B616765004D61696E426FD8
:106D10006172645570677261646500436F6D52659E
:106D200063764D61696E426F6172644461746100A3
:106D3000466C6173685772697465576F7264004678
:106D40006C6173685772697465004C6F6164537944
:106D50007374656D496E666F0053797374656D5217
:106D6000657365745265636F7264005072696E7406
:106D7000664461746100425350466C617368577297
:106D800069746500466C6173685465737400464DA0
:106D900031373558585F436F6E66696700000000F1
:106DA000A56363C6847C7CF8997777EE8D7B7BF650
:106DB0000DF2F2FFBD6B6BD6B16F6FDE54C5C5919E
:106DC0005030306003010102A96767CE7D2B2B563E
:106DD00019FEFEE762D7D7B5E6ABAB4D9A7676ECF7
:106DE00045CACA8F9D82821F40C9C989877D7DFAA5
:106DF00015FAFAEFEB5959B2C947478E0BF0F0FB81
:106E0000ECADAD4167D4D4B3FDA2A25FEAAFAF450C
:106E1000BF9C9C23F7A4A453967272E45BC0C09BF2
:106E2000C2B7B7751CFDFDE1AE93933D6A26264CB3
:106E30005A36366C413F3F7E02F7F7F54FCCCC8394
:106E40005C343468F4A5A55134E5E5D108F1F1F9D5
:106E5000937171E273D8D8AB533131623F15152A63
:106E60000C04040852C7C795652323465EC3C39D1F
:106E700028181830A19696370F05050AB59A9A2F4B
:106E80000907070E361212249B80801B3DE2E2DFC9
:106E900026EBEBCD6927274ECDB2B27F9F7575EA01
:106EA0001B0909129E83831D742C2C582E1A1A3428
:106EB0002D1B1B36B26E6EDCEE5A5AB4FBA0A05BE3
:106EC000F65252A44D3B3B7661D6D6B7CEB3B37DD6
:106ED0007B2929523EE3E3DD712F2F5E97848413D3
:106EE000F55353A668D1D1B9000000002CEDEDC1D7
:106EF000602020401FFCFCE3C8B1B179ED5B5BB6BC
:106F0000BE6A6AD446CBCB8DD9BEBE674B393972C7
:106F1000DE4A4A94D44C4C98E85858B04ACFCF85B2
:106F20006BD0D0BB2AEFEFC5E5AAAA4F16FBFBED4D
:106F3000C5434386D74D4D9A5533336694858511A5
:106F4000CF45458A10F9F9E906020204817F7FFEE8
:106F5000F05050A0443C3C78BA9F9F25E3A8A84B32
:106F6000F35151A2FEA3A35DC04040808A8F8F05DC
:106F7000AD92923FBC9D9D214838387004F5F5F1E3
:106F8000DFBCBC63C1B6B67775DADAAF63212142E4
:106F9000301010201AFFFFE50EF3F3FD6DD2D2BFC3
:106FA0004CCDCD81140C0C18351313262FECECC3EB
:106FB000E15F5FBEA2979735CC4444883917172EFE
:106FC00057C4C493F2A7A755827E7EFC473D3D7A05
:106FD000AC6464C8E75D5DBA2B191932957373E62A
:106FE000A06060C098818119D14F4F9E7FDCDCA3E7
:106FF000662222447E2A2A54AB90903B8388880BD9
:10700000CA46468C29EEEEC7D3B8B86B3C14142898
:1070100079DEDEA7E25E5EBC1D0B0B1676DBDBAD18
:107020003BE0E0DB563232644E3A3A741E0A0A14F0
:10703000DB4949920A06060C6C242448E45C5CB8DF
:107040005DC2C29F6ED3D3BDEFACAC43A66262C437
:10705000A8919139A495953137E4E4D38B7979F2ED
:1070600032E7E7D543C8C88B5937376EB76D6DDA4D
:107070008C8D8D0164D5D5B1D24E4E9CE0A9A94925
:10708000B46C6CD8FA5656AC07F4F4F325EAEACFA0
:10709000AF6565CA8E7A7AF4E9AEAE471808081073
:1070A000D5BABA6F887878F06F25254A722E2E5C93
:1070B000241C1C38F1A6A657C7B4B47351C6C69792
:1070C00023E8E8CB7CDDDDA19C7474E8211F1F3E22
:1070D000DD4B4B96DCBDBD61868B8B0D858A8A0F9F
:1070E000907070E0423E3E7CC4B5B571AA6666CC35
:1070F000D84848900503030601F6F6F7120E0E1C59
:10710000A36161C25F35356AF95757AED0B9B96925
:107110009186861758C1C199271D1D3AB99E9E2791
:1071200038E1E1D913F8F8EBB398982B3311112219
:10713000BB6969D270D9D9A9898E8E07A794943377
:10714000B69B9B2D221E1E3C9287871520E9E9C91C
:1071500049CECE87FF5555AA782828507ADFDFA57B
:107160008F8C8C03F8A1A15980898909170D0D1AFC
:10717000DABFBF6531E6E6D7C6424284B86868D058
:10718000C3414182B0999929772D2D5A110F0F1EB5
:10719000CBB0B07BFC5454A8D6BBBB6D3A16162CB2
:1071A0006363C6A57C7CF8847777EE997B7BF68D4C
:1071B000F2F2FF0D6B6BD6BD6F6FDEB1C5C591549A
:1071C00030306050010102036767CEA92B2B567D3A
:1071D000FEFEE719D7D7B562ABAB4DE67676EC9AF3
:1071E000CACA8F4582821F9DC9C989407D7DFA87A1
:1071F000FAFAEF155959B2EB47478EC9F0F0FB0B7D
:10720000ADAD41ECD4D4B367A2A25FFDAFAF45EA08
:107210009C9C23BFA4A453F77272E496C0C09B5BEE
:10722000B7B775C2FDFDE11C93933DAE26264C6AAF
:1072300036366C5A3F3F7E41F7F7F502CCCC834F90
:107240003434685CA5A551F4E5E5D134F1F1F908D1
:107250007171E293D8D8AB733131625315152A3F5F
:107260000404080CC7C7955223234665C3C39D5E1B
:1072700018183028969637A105050A0F9A9A2FB547
:1072800007070E091212243680801B9BE2E2DF3DC5
:10729000EBEBCD2627274E69B2B27FCD7575EA9FFD
:1072A0000909121B83831D9E2C2C58741A1A342E24
:1072B0001B1B362D6E6EDCB25A5AB4EEA0A05BFBDF
:1072C0005252A4F63B3B764DD6D6B761B3B37DCED2
:1072D0002929527BE3E3DD3E2F2F5E7184841397CF
:1072E0005353A6F5D1D1B96800000000EDEDC12CD3
:1072F00020204060FCFCE31FB1B179C85B5BB6EDB8
:107300006A6AD4BECBCB8D46BEBE67D93939724BC3
:107310004A4A94DE4C4C98D45858B0E8CFCF854AAE
:10732000D0D0BB6BEFEFC52AAAAA4FE5FBFBED1649
:10733000434386C54D4D9AD73333665585851194A1
:1073400045458ACFF9F9E910020204067F7FFE81E4
:107350005050A0F03C3C78449F9F25BAA8A84BE32E
:107360005151A2F3A3A35DFE404080C08F8F058AD8
:1073700092923FAD9D9D21BC38387048F5F5F104DF
:10738000BCBC63DFB6B677C1DADAAF7521214263E0
:1073900010102030FFFFE51AF3F3FD0ED2D2BF6DBF
:1073A000CDCD814C0C0C181413132635ECECC32FE7
:1073B0005F5FBEE1979735A2444488CC17172E39FA
:1073C000C4C49357A7A755F27E7EFC823D3D7A4701
:1073D0006464C8AC5D5DBAE71919322B7373E69526
:1073E0006060C0A0818119984F4F9ED1DCDCA37FE3
:1073F000222244662A2A547E90903BAB88880B83D5
:1074000046468CCAEEEEC729B8B86BD31414283C94
:10741000DEDEA7795E5EBCE20B0B161DDBDBAD7614
:10742000E0E0DB3B323264563A3A744E0A0A141EEC
:10743000494992DB06060C0A2424486C5C5CB8E4DB
:10744000C2C29F5DD3D3BD6EACAC43EF6262C4A633
:10745000919139A8959531A4E4E4D3377979F28BE9
:10746000E7E7D532C8C88B4337376E596D6DDAB749
:107470008D8D018CD5D5B1644E4E9CD2A9A949E021
:107480006C6CD8B45656ACFAF4F4F307EAEACF259C
:107490006565CAAF7A7AF48EAEAE47E9080810186F
:1074A000BABA6FD57878F08825254A6F2E2E5C728F
:1074B0001C1C3824A6A657F1B4B473C7C6C697518E
:1074C000E8E8CB23DDDDA17C7474E89C1F1F3E211E
:1074D0004B4B96DDBDBD61DC8B8B0D868A8A0F859B
:1074E0007070E0903E3E7C42B5B571C46666CCAA31
:1074F000484890D803030605F6F6F7010E0E1C1255
:107500006161C2A335356A5F5757AEF9B9B969D021
:1075100086861791C1C199581D1D3A279E9E27B98D
:10752000E1E1D938F8F8EB1398982BB31111223315
:107530006969D2BBD9D9A9708E8E0789949433A773
:107540009B9B2DB61E1E3C2287871592E9E9C92018
:10755000CECE87495555AAFF28285078DFDFA57A77
:107560008C8C038FA1A159F8898909800D0D1A17F8
:10757000BFBF65DAE6E6D731424284C66868D0B854
:10758000414182C3999929B02D2D5A770F0F1E11B1
:10759000B0B07BCB5454A8FCBBBB6DD616162C3AAE
:1075A00063C6A5637CF8847C77EE99777BF68D7B48
:1075B000F2FF0DF26BD6BD6B6FDEB16FC59154C596
:1075C000306050300102030167CEA9672B567D2B36
:1075D000FEE719FED7B562D7AB4DE6AB76EC9A76EF
:1075E000CA8F45CA821F9D82C98940C97DFA877D9D
:1075F000FAEF15FA59B2EB59478EC947F0FB0BF079
:10760000AD41ECADD4B367D4A25FFDA2AF45EAAF04
:107610009C23BF9CA453F7A472E49672C09B5BC0EA
:10762000B775C2B7FDE11CFD933DAE93264C6A26AB
:10763000366C5A363F7E413FF7F502F7CC834FCC8C
:1076400034685C34A551F4A5E5D134E5F1F908F1CD
:1076500071E29371D8AB73D831625331152A3F155B
:1076600004080C04C79552C723466523C39D5EC317
:10767000183028189637A196050A0F059A2FB59A43
:10768000070E090712243612801B9B80E2DF3DE2C1
:10769000EBCD26EB274E6927B27FCDB275EA9F75F9
:1076A00009121B09831D9E832C58742C1A342E1A20
:1076B0001B362D1B6EDCB26E5AB4EE5AA05BFBA0DB
:1076C00052A4F6523B764D3BD6B761D6B37DCEB3CE
:1076D00029527B29E3DD3EE32F5E712F84139784CB
:1076E00053A6F553D1B968D100000000EDC12CEDCF
:1076F00020406020FCE31FFCB179C8B15BB6ED5BB4
:107700006AD4BE6ACB8D46CBBE67D9BE39724B39BF
:107710004A94DE4A4C98D44C58B0E858CF854ACFAA
:10772000D0BB6BD0EFC52AEFAA4FE5AAFBED16FB45
:107730004386C5434D9AD74D33665533851194859D
:10774000458ACF45F9E910F9020406027FFE817FE0
:1077500050A0F0503C78443C9F25BA9FA84BE3A82A
:1077600051A2F351A35DFEA34080C0408F058A8FD4
:10777000923FAD929D21BC9D38704838F5F104F5DB
:10778000BC63DFBCB677C1B6DAAF75DA21426321DC
:1077900010203010FFE51AFFF3FD0EF3D2BF6DD2BB
:1077A000CD814CCD0C18140C13263513ECC32FECE3
:1077B0005FBEE15F9735A2974488CC44172E3917F6
:1077C000C49357C4A755F2A77EFC827E3D7A473DFD
:1077D00064C8AC645DBAE75D19322B1973E6957322
:1077E00060C0A060811998814F9ED14FDCA37FDCDF
:1077F000224466222A547E2A903BAB90880B8388D1
:10780000468CCA46EEC729EEB86BD3B814283C1490
:10781000DEA779DE5EBCE25E0B161D0BDBAD76DB10
:10782000E0DB3BE0326456323A744E3A0A141E0AE8
:107830004992DB49060C0A0624486C245CB8E45CD7
:10784000C29F5DC2D3BD6ED3AC43EFAC62C4A6622F
:107850009139A8919531A495E4D337E479F28B79E5
:10786000E7D532E7C88B43C8376E59376DDAB76D45
:107870008D018C8DD5B164D54E9CD24EA949E0A91D
:107880006CD8B46C56ACFA56F4F307F4EACF25EA98
:1078900065CAAF657AF48E7AAE47E9AE081018086B
:1078A000BA6FD5BA78F08878254A6F252E5C722E8B
:1078B0001C38241CA657F1A6B473C7B4C69751C68A
:1078C000E8CB23E8DDA17CDD74E89C741F3E211F1A
:1078D0004B96DD4BBD61DCBD8B0D868B8A0F858A97
:1078E00070E090703E7C423EB571C4B566CCAA662D
:1078F0004890D84803060503F6F701F60E1C120E51
:1079000061C2A361356A5F3557AEF957B969D0B91D
:1079100086179186C19958C11D3A271D9E27B99E89
:10792000E1D938E1F8EB13F8982BB3981122331111
:1079300069D2BB69D9A970D98E07898E9433A7946F
:107940009B2DB69B1E3C221E87159287E9C920E914
:10795000CE8749CE55AAFF5528507828DFA57ADF73
:107960008C038F8CA159F8A1890980890D1A170DF4
:10797000BF65DABFE6D731E64284C64268D0B86850
:107980004182C3419929B0992D5A772D0F1E110FAD
:10799000B07BCBB054A8FC54BB6DD6BB162C3A16AA
:1079A000C6A56363F8847C7CEE997777F68D7B7B44
:1079B000FF0DF2F2D6BD6B6BDEB16F6F9154C5C592
:1079C0006050303002030101CEA96767567D2B2B32
:1079D000E719FEFEB562D7D74DE6ABABEC9A7676EB
:1079E0008F45CACA1F9D82828940C9C9FA877D7D99
:1079F000EF15FAFAB2EB59598EC94747FB0BF0F075
:107A000041ECADADB367D4D45FFDA2A245EAAFAF00
:107A100023BF9C9C53F7A4A4E49672729B5BC0C0E6
:107A200075C2B7B7E11CFDFD3DAE93934C6A2626A7
:107A30006C5A36367E413F3FF502F7F7834FCCCC88
:107A4000685C343451F4A5A5D134E5E5F908F1F1C9
:107A5000E2937171AB73D8D8625331312A3F151557
:107A6000080C04049552C7C7466523239D5EC3C313
:107A70003028181837A196960A0F05052FB59A9A3F
:107A80000E090707243612121B9B8080DF3DE2E2BD
:107A9000CD26EBEB4E6927277FCDB2B2EA9F7575F5
:107AA000121B09091D9E838358742C2C342E1A1A1C
:107AB000362D1B1BDCB26E6EB4EE5A5A5BFBA0A0D7
:107AC000A4F65252764D3B3BB761D6D67DCEB3B3CA
:107AD000527B2929DD3EE3E35E712F2F13978484C7
